:020000040800F2
:10000000202C0020450100085B0300085303000872
:10001000570300088D010008190A000800000000BD
:10002000000000000000000000000000BD06000805
:1000300091010008000000005D030008D5070008DA
:100040005F0100085F0100085F0100085F01000810
:100050005F0100085F0100085F0100085F01000800
:100060005F0100085F0100085F0100085F010008F0
:100070005F0100085F0100085F0100085F010008E0
:100080005F0100085F0100085F0100085F010008D0
:100090005F0100085F0100085F0100085F010008C0
:1000A0005F0100085F0100085F0100085F010008B0
:1000B0005F0100085F0100085F0100085F010008A0
:1000C0005F0100085F0100085F0100085F01000890
:1000D0005F0100085F0100085F0100085F01000880
:1000E0005F0100085F0100085F0100085F01000870
:1000F0005F0100085F0100085F0100085F01000860
:100100005F0100085F0100085F0100085F0100084F
:100110005F0100085F0100085F0100085F0100083F
:100120005F0100085F0100085F0100085F0100082F
:10013000DFF80CD000F018F8004800473D0A00082E
:10014000202C00200648804706480047FEE7FEE7CF
:10015000FEE7FEE7FEE7FEE7FEE7FEE7FEE7FEE777
:10016000D907000831010008064C074D06E0E06899
:1001700040F0010394E8070098471034AC42F6D3EE
:10018000FFF7DAFFAC0A0008CC0A000800BFFEE760
:100190007047000008B50120ADF8000010208DF870
:1001A000030003208DF802006946114800F042F870
:1001B0002020ADF8000018208DF8030069460D4896
:1001C00000F038F88020ADF8000018208DF803000A
:1001D0006946084800F02EF84020ADF800001820CD
:1001E0008DF803006946034800F024F808BD0000BC
:1001F00000100140000801401CB54FF40070ADF83C
:10020000040018208DF8070003208DF806004FF435
:100210008060ADF8000004208DF8030001A90448B7
:1002200000F008F86946024800F004F81CBD000020
:10023000000801402DE9F04102460025002600207B
:1002400000230024002791F803C00CF00F0591F85B
:1002500003C00CF0100CBCF1000F03D091F802C0E9
:100260004CEA050591F800C0BCF1000F31D01468CC
:1002700000202BE04FF0010C0CFA00F3B1F800C0A5
:100280000CEA03069E4220D183004FF00F0C0CFABB
:1002900003F7BC4305FA03FC4CEA040491F803C0DD
:1002A000BCF1280F06D14FF0010C0CFA00FCC2F88B
:1002B00014C00AE091F803C0BCF1480F05D14FF01B
:1002C000010C0CFA00FCC2F810C0401C0828D1D365
:1002D0001460B1F800C0BCF1FF0F34DD5468002099
:1002E0002EE000F1080C4FF0010808FA0CF3B1F809
:1002F00000C00CEA03069E4221D183004FF00F0C90
:100300000CFA03F7BC4305FA03FC4CEA040491F829
:1003100003C0BCF1280F05D100F1080C08FA0CF855
:10032000C2F8148091F803C0BCF1480F07D100F166
:10033000080C4FF0010808FA0CF8C2F81080401CB5
:100340000828CED35460BDE8F08141617047016157
:10035000704700BFFEE700BFFEE770477047000030
:1003600029B1064A12690243044B1A6104E0034AA8
:1003700012698243014B1A6170470000001002406D
:1003800029B1064A92690243044B9A6104E0034A88
:1003900092698243014B9A6170470000001002404D
:1003A00029B1064AD2680243044BDA6004E0034AEA
:1003B000D2688243014BDA607047000000100240AF
:1003C00030B500210022002400232D4D6D6805F07A
:1003D0000C0121B1042905D0082923D105E0294DBC
:1003E000056022E0274D05601FE0254D6D6805F48E
:1003F0007012234D6D6805F48034022505EB92429E
:100400001CB9214D554305600BE01D4D6D6805F489
:1004100000351DB11C4D5543056002E0194D554393
:10042000056002E0174D056000BF00BF144D6D6808
:1004300005F0F0010909154D6B5C0568DD4045606C
:100440000F4D6D6805F4E061090A104D6B5C45685D
:10045000DD4085600A4D6D6805F46051C90A0B4D99
:100460006B5C4568DD40C560054D6D6805F4404135
:10047000890B074D6B5CC568B5FBF3F5056130BDB5
:100480000010024000127A0000093D000000002028
:100490001000002010B501210420FFF771FF012199
:1004A0008803FFF76DFF10BD10B5044600BF0221A1
:1004B0000A4800F075F80028F9D02146074800F0F6
:1004C0007BF800BF0121054800F06AF80028F9D048
:1004D000024800F06EF8C0B210BD000000300140CC
:1004E00010B500F0B3F8FFF755FE01210248FFF701
:1004F0002EFF00F063F810BD0010014021B102880A
:1005000042F04002028004E002884FF6BF731A40B6
:100510000280704710B5044601210F48FFF715FF10
:10052000AB20FFF7C1FFFF20FFF7BEFFFF20FFF763
:10053000BBFFFF20FFF7B8FFFF20FFF7B5FF2070DC
:1005400001210548FFF703FF2078162801D101207B
:1005500010BD0020FCE700000010014010B504466B
:1005600001210E48FFF7F1FE9F20FFF79DFFFF20BE
:10057000FFF79AFF2070FF20FFF796FF6070FF20C3
:10058000FFF792FFA07001210448FFF7E0FE2078FA
:100590009F2801D1012010BD0020FCE70010014080
:1005A0000246002013890B400BB1012000E000201F
:1005B00070470146888970478181704700B585B0D2
:1005C0000020ADF80C000120ADF808000220ADF8C5
:1005D00006000720ADF810000020ADF80400ADF8CB
:1005E0000000ADF80E004FF48270ADF802004FF439
:1005F0000070ADF80A006946044800F009F80121CE
:100600000248FFF77BFF05B000BD0000003001404D
:1006100010B50022028802F441520B884C88234313
:100620008C882343CC8823430C8923434C89234360
:100630008C892343CC8923431A430280838B4FF256
:10064000FF74234083830B8A038210BD10B5012100
:100650001020FFF795FE01210420FFF791FE0121F4
:100660000803FFF78DFE10BD10B501211148FFF7FB
:100670006CFEAB20FFF718FFFF20FFF715FFFF20F0
:10068000FFF712FFFF20FFF70FFFFF20FFF70CFF20
:10069000044601210748FFF75AFE0748007806493B
:1006A0000870162C02D008460078087002480078BE
:1006B00010BD0000001001401D0000207047000028
:1006C00070B505460E4600240BE0295D064800F093
:1006D00087F900BF8021044800F008F90028F9D00C
:1006E000641CB442F1D370BD0038014010B500F075
:1006F00001F810BD0CB5002001900090334800684F
:1007000040F480303149086000BF3048006800F490
:10071000003000900198401C0190009818B9019891
:10072000B0F5A06FF1D12948006800F4003010B195
:100730000120009001E0002000900098012843D1A2
:100740002348006840F0100021490860084600680E
:1007500020F0030008600846006840F002000860CE
:100760001A48406819494860084640684860084689
:10077000406840F4806048600846406820F47C107F
:1007800048600846406840F4E81048600846006841
:1007900040F08070086000BF0C48006800F00070F6
:1007A0000028F9D00948406820F003000749486054
:1007B0000846406840F00200486000BF03484068B7
:1007C00000F00C000828F9D10CBD00000010024018
:1007D000002002407047000010B51348006840F048
:1007E00001001149086008464068104908400E4958
:1007F0004860084600680E4908400B4908600846F2
:10080000006820F4802008600846406820F4FE005C
:1008100048604FF41F008860FFF768FF4FF00060EA
:100820000449086010BD0000001002400000FFF8FD
:10083000FFFFF6FE08ED00E021B1828942F400528C
:10084000828104E082894DF6FF731A4082817047ED
:1008500010B504462048844209D101218803FFF7DE
:100860009FFD00214FF48040FFF79AFD32E01B48C6
:10087000844209D101214804FFF772FD00214FF4A1
:100880000030FFF76DFD25E01548844209D10121B4
:100890008804FFF765FD00214FF48020FFF760FD1D
:1008A00018E01048844209D10121C804FFF758FD1F
:1008B00000214FF40020FFF753FD0BE00A4884426B
:1008C00008D101210805FFF74BFD00214FF48010EE
:1008D000FFF746FD10BD0000003801400044004015
:1008E00000480040004C00400050004002460020FC
:1008F000B1F5007F00D100BF13880B400BB1012080
:1009000000E00020704700002DE9F04786B0054662
:100910000E460024A24600BFA1460027B08900B1C0
:1009200000BF2F462C8A4CF6FF700440F088044329
:100930002C82AC894EF6F3100440B088318908430C
:10094000718908430443AC81AC8A4FF6FF400440F0
:10095000B0890443AC8201A8FFF732FD1F488742EB
:1009600002D1DDF810A001E0DDF80CA0A88900F4A8
:10097000004040B10AEBCA0000EB0A1031684900A0
:10098000B0FBF1F807E00AEBCA0000EB0A1031688F
:100990008900B0FBF1F86420B8FBF0F004012009F5
:1009A000642101FB1089A88900F4004040B1322085
:1009B00000EBC900B0FBF1F000F00700044308E0D1
:1009C000322000EB09106421B0FBF1F000F00F00C1
:1009D00004432C8106B0BDE8F087000000380140D8
:1009E000C1F30802828070471FB54FF4E1300090D8
:1009F0000020ADF80400ADF80600ADF808000C20AA
:100A0000ADF80A000020ADF80C0069460148FFF778
:100A10007BFF1FBD0038014000BFFEE702E008C8B1
:100A2000121F08C1002AFAD170477047002001E068
:100A300001C1121F002AFBD17047000000BF002433
:100A400000F022F8FFF74CFDFFF70EFE0C48FFF711
:100A500061FD01210A48FFF733FE0948FFF77EFDDB
:100A600003210748FFF72CFE00BF04E0AA20054938
:100A70000855601C84B2B4F5A05FF7DB00BFFEE749
:100A8000150000202014002010B50748FFF7E0FEF5
:100A9000FFF700FDFFF7B0FBFFF7A6FF01210248BB
:100AA000FFF7CAFE10BD000000380140CC0A000864
:100AB00000000020200000001C0A0008EC0A0008CA
:100AC00020000020002C00002C0A0008000000007C
:100AD00001020304010203040607080902040608D0
:0C0AE0000000000000000000000000000A
:0400000508000145A9
:00000001FF
