:020000040800F2
:1000000018040020450100083D0A00080B04000800
:10001000390A00088D010008F90E000800000000F0
:10002000000000000000000000000000A90B000814
:1000300091010008000000003F0A0008B50C00080C
:100040005F0100085F0100085F0100085F01000810
:100050005F0100085F0100085F0100085F01000800
:100060005F0100085F0100085F0100085F010008F0
:100070005F0100085F0100085F0100085F010008E0
:100080005F0100085F0100085F0100085F010008D0
:100090005F0100085F0100085F0100085F010008C0
:1000A0005F0100085F0100085F0100085F010008B0
:1000B0005F0100085F0100085F0100085F010008A0
:1000C0005F0100085F0100085F0100085F01000890
:1000D0005F0100085F0100085F0100085F01000880
:1000E0005F0100085F0100085F0100085F01000870
:1000F0005F0100085F0100085F0100085F01000860
:100100005F0100085F0100085F0100085F0100084F
:100110005F0100085F0100085F0100085F0100083F
:100120005F0100085F0100085F0100085F0100082F
:10013000DFF80CD000F018F8004800471B0F00084B
:10014000180400200648804706480047FEE7FEE7FF
:10015000FEE7FEE7FEE7FEE7FEE7FEE7FEE7FEE777
:10016000B90C000831010008064C074D06E0E068B4
:1001700040F0010394E8070098471034AC42F6D3EE
:10018000FFF7DAFF500F0008700F000800BFFEE70E
:100190007047000051B18200A2F1C042126842F0E3
:1001A00001038200A2F1C042136009E08200A2F1C3
:1001B000C0421268034B1A408300A3F1C0431A6087
:1001C00070470000FEFF0F00D0E901121143C26822
:1001D0001143026911434269114382691143C269A3
:1001E0001143026A1143426A1143826A1143C26A8F
:1001F0001143026B114302689200A2F1C0421160E8
:10020000816808290BD101688900A1F1C041096802
:1002100041F0400201688900A1F1C0410A60416BD0
:100220000968426B526841EA0211426B926841EAE6
:100230000221426B928941EA0241426B128A41EAF1
:100240000251426B127D41EA0261426B9269114395
:100250000268521C9200A2F1C0421160C16AB1F55D
:10026000804F1BD1816B0968826B526841EA021191
:10027000826B926841EA0221826B128A41EA025142
:10028000826B127D41EA0261826B926911430268BE
:100290009200A2F1C042C2F8041107E06FF0704270
:1002A00001688900A1F1C041C1F804217047000034
:1002B0001CB54FF40070ADF8040018208DF807004D
:1002C00003208DF806004FF48060ADF80000042094
:1002D0008DF8030001A9044800F008F869460248B7
:1002E00000F004F81CBD0000000801402DE9F041B9
:1002F000024600250026002000230024002791F854
:1003000003C00CF00F0591F803C00CF0100CBCF109
:10031000000F03D091F802C04CEA050591F800C027
:10032000BCF1000F31D0146800202BE04FF0010C1D
:100330000CFA00F3B1F800C00CEA03069E4220D18B
:1003400083004FF00F0C0CFA03F7BC4305FA03FCD3
:100350004CEA040491F803C0BCF1280F06D14FF019
:10036000010C0CFA00FCC2F814C00AE091F803C0BA
:10037000BCF1480F05D14FF0010C0CFA00FCC2F89B
:1003800010C0401C0828D1D31460B1F800C0BCF1E3
:10039000FF0F34DD546800202EE000F1080C4FF010
:1003A000010808FA0CF3B1F800C00CEA03069E42FB
:1003B00021D183004FF00F0C0CFA03F7BC4305FA70
:1003C00003FC4CEA040491F803C0BCF1280F05D1EA
:1003D00000F1080C08FA0CF8C2F8148091F803C078
:1003E000BCF1480F07D100F1080C4FF0010808FAE2
:1003F0000CF8C2F81080401C0828CED35460BDE829
:10040000F081416170470161704700BFFEE7000065
:1004100010B504462CB14FF480510548FFF7F1FFA9
:1004200004E04FF480510248FFF7EDFF10BD0000DB
:100430000014014001B502E00098401E00900098B1
:100440000028F9D108BD30B50246072A00DD30BDCD
:100450001346104602EBD0714910A2EB410119B9C5
:10046000F0244FF4A07502E04FF4A074F02536207C
:1004700000F0D7FA082141EA421000F0D7FA2A200A
:1004800000F0CFFA002000F0D1FA002000F0CEFA00
:10049000611EC1F3072000F0C9FA611EC8B200F066
:1004A000C5FA2B2000F0BDFA002000F0BFFA0020B2
:1004B00000F0BCFA691EC1F3072000F0B7FA691E0C
:1004C000C8B200F0B3FA2C2000F0ABFA00BFBEE7D0
:1004D00010B5CF2000F0A5FA002000F0A7FA812087
:1004E00000F0A4FA302000F0A1FAED2000F099FA13
:1004F000642000F09BFA032000F098FA122000F02C
:1005000095FA812000F092FAE82000F08AFA85201E
:1005100000F08CFA102000F089FA782000F086FABA
:10052000CB2000F07EFA392000F080FA2C2000F079
:100530007DFA002000F07AFA342000F077FA0220E9
:1005400000F074FAF72000F06CFA202000F06EFA48
:10055000EA2000F066FA002000F068FA002000F0BF
:1005600065FAB12000F05DFA002000F05FFA1B2070
:1005700000F05CFAB62000F054FA0A2000F056FAB7
:10058000A22000F053FAC02000F04BFA352000F012
:100590004DFAC12000F045FA112000F047FAC520BD
:1005A00000F03FFA452000F041FA452000F03EFA05
:1005B000C72000F036FAA22000F038FAF22000F04E
:1005C00030FA002000F032FA262000F02AFA01204A
:1005D00000F02CFAE02000F024FA0F2000F026FAB8
:1005E000262000F023FA242000F020FA0B2000F04F
:1005F0001DFA0E2000F01AFA092000F017FA542014
:1006000000F014FAA82000F011FA462000F00EFACB
:100610000C2000F00BFA172000F008FA092000F077
:1006200005FA0F2000F002FA072000F0FFF9002081
:1006300000F0FCF9E12000F0F4F9002000F0F6F9F8
:10064000192000F0F3F91B2000F0F0F9042000F06D
:10065000EDF9102000F0EAF9072000F0E7F92A2070
:1006600000F0E4F9472000F0E1F9392000F0DEF96C
:10067000032000F0DBF9062000F0D8F9062000F096
:10068000D5F9302000F0D2F9382000F0CFF90F2052
:1006900000F0CCF9362000F0C4F9C82000F0C6F90B
:1006A0002A2000F0BEF9002000F0C0F9002000F080
:1006B000BDF9002000F0BAF9EF2000F0B7F92B20C7
:1006C00000F0AFF9002000F0B1F9002000F0AEF921
:1006D000012000F0ABF93F2000F0A8F93A2000F02B
:1006E000A0F9552000F0A2F9112000F09AF9034872
:1006F000FFF7A0FE292000F094F910BDFCBF020016
:1007000010B502210748FFF77CFE40F6FF20FFF7F7
:1007100091FE02210348FFF776FE40F6FF20FFF727
:1007200089FE10BD0018014010B500F02CF900F052
:1007300063F800F032F80120FFF76AFEFFF7E0FFF0
:10074000FFF7C6FE0620FFF77EFE10BD70B504461B
:100750000D46281B991A00FB01F62A2000F061F9CA
:10076000201200F063F9E0B200F060F9281200F006
:100770005DF9E8B200F05AF92B2000F052F910129E
:1007800000F054F9D0B200F051F9181200F04EF90F
:10079000D8B200F04BF9304670BD00B597B04FF0BD
:1007A000805016900420129001201090002011908B
:1007B0001390012014900020159001904FF4804078
:1007C0000C90102004900820039040020A90002012
:1007D0000690059002900B900990079008900D905C
:1007E00010A80E900F9001A8FFF7EEFC0121002049
:1007F000FFF7D0FC17B000BD08B518208DF8030036
:1008000003208DF802004FF48040ADF800006946E7
:100810005348FFF76BFD4FF40040ADF80000694608
:100820004F48FFF763FD0120ADF8000069464C48D2
:10083000FFF75CFD0220ADF8000069464848FFF76D
:1008400055FD8020ADF8000069464648FFF74EFD93
:100850004FF48070ADF8000069464248FFF746FD4E
:100860004FF40070ADF8000069463E48FFF73EFDCA
:100870004FF48060ADF8000069463A48FFF736FD56
:100880004FF40060ADF8000069463648FFF72EFDD2
:100890004FF48050ADF8000069463248FFF726FD5E
:1008A0004FF40050ADF8000069462E48FFF71EFDDA
:1008B0004FF48040ADF8000069462A48FFF716FD66
:1008C0004FF40040ADF8000069462648FFF70EFDE2
:1008D0004FF48070ADF8000069462148FFF706FD2F
:1008E0004FF40070ADF8000069461D48FFF7FEFCAC
:1008F0004FF48060ADF8000069461948FFF7F6FC38
:100900008020ADF8000069461548FFF7EFFC102085
:10091000ADF8000069461248FFF7E8FC2020ADF86A
:10092000000069460E48FFF7E1FC4FF40060ADF8A7
:10093000000069460A48FFF7D9FC10208DF8030033
:100940000220ADF8000069460648FFF7CFFC4FF4DF
:100950008050ADF8000069460148FFF7C7FC08BDAC
:10096000001401400018014010B502460B462C202F
:1009700000F057F8002403E090B200F057F8641C30
:100980009C42F9D310BD10B50121602000F078F829
:100990000121080200F054F810BD00000148008851
:1009A000704700000000026070B50024092000F0CC
:1009B00038F8FFF7F3FFFFF7F1FF054605F0FE00FB
:1009C00004EB4064FFF7EAFF054605F07F0004EB07
:1009D0000044FFF7E3FF054605F0070004EB0024A1
:1009E000FFF7DCFF054605F0E00004EB4014200EA5
:1009F00000F0DCF8C4F3074000F0D8F8C4F3072097
:100A000000F0D4F8E0B200F0D1F8632300221946D8
:100A10001046FFF79BFE064631460020FFF7A4FF75
:100A200070BD4FF0C0410880704700000149088048
:100A3000704700000000026000BFFEE7704770478B
:100A400029B1064A52690243044B5A6104E0034A41
:100A500052698243014B5A61704700000010024006
:100A600029B1064A12690243044B1A6104E0034AA1
:100A700012698243014B1A61704700000010024066
:100A800029B1064A92690243044B9A6104E0034A81
:100A900092698243014B9A61704700000010024046
:100AA00029B1064AD2680243044BDA6004E0034AE3
:100AB000D2688243014BDA607047000000100240A8
:100AC00030B500210022002400232D4D6D6805F073
:100AD0000C0121B1042905D0082923D105E0294DB5
:100AE000056022E0274D05601FE0254D6D6805F487
:100AF0007012234D6D6805F48034022505EB924297
:100B00001CB9214D554305600BE01D4D6D6805F482
:100B100000351DB11C4D5543056002E0194D55438C
:100B2000056002E0174D056000BF00BF144D6D6801
:100B300005F0F0010909154D6B5C0568DD40456065
:100B40000F4D6D6805F4E061090A104D6B5C456856
:100B5000DD4085600A4D6D6805F46051C90A0B4D92
:100B60006B5C4568DD40C560054D6D6805F440412E
:100B7000890B074D6B5CC568B5FBF3F5056130BDAE
:100B80000010024000127A0000093D000000002021
:100B90001000002010B501210420FFF771FF012192
:100BA0008803FFF76DFF10BD7047000010B50446C5
:100BB0002146054800F084F900BF8021024800F07A
:100BC00005F90028F9D010BD0038014010B500F03B
:100BD00001F810BD0CB5002001900090334800686A
:100BE00040F480303149086000BF3048006800F4AC
:100BF000003000900198401C0190009818B90198AD
:100C0000B0F5A06FF1D12948006800F4003010B1B0
:100C10000120009001E0002000900098012843D1BD
:100C20002348006840F01000214908600846006829
:100C300020F0030008600846006840F002000860E9
:100C40001A484068194948600846406848600846A4
:100C5000406840F4806048600846406820F47C109A
:100C600048600846406840F4E8104860084600685C
:100C700040F08070086000BF0C48006800F0007011
:100C80000028F9D00948406820F00300074948606F
:100C90000846406840F00200486000BF03484068D2
:100CA00000F00C000828F9D10CBD00000010024033
:100CB000002002407047000010B51348006840F063
:100CC00001001149086008464068104908400E4973
:100CD0004860084600680E4908400B49086008460D
:100CE000006820F4802008600846406820F4FE0078
:100CF00048604FF41F008860FFF768FF4FF0006006
:100D00000449086010BD0000001002400000FFF818
:100D1000FFFFF6FE08ED00E021B1828942F40052A7
:100D2000828104E082894DF6FF731A408281704708
:100D300010B504462048844209D101218803FFF7F9
:100D4000AFFE00214FF48040FFF7AAFE32E01B48BF
:100D5000844209D101214804FFF782FE00214FF4AB
:100D60000030FFF77DFE25E01548844209D10121BE
:100D70008804FFF775FE00214FF48020FFF770FE16
:100D800018E01048844209D10121C804FFF768FE29
:100D900000214FF40020FFF763FE0BE00A48844275
:100DA00008D101210805FFF75BFE00214FF48010F8
:100DB000FFF756FE10BD000000380140004400401F
:100DC00000480040004C0040005000400246002017
:100DD000B1F5007F00D100BF13880B400BB101209B
:100DE00000E00020704700002DE9F04786B005467E
:100DF0000E460024A24600BFA1460027B08900B1DC
:100E000000BF2F462C8A4CF6FF700440F088044344
:100E10002C82AC894EF6F3100440B0883189084327
:100E2000718908430443AC81AC8A4FF6FF4004400B
:100E3000B0890443AC8201A8FFF742FE1F488742F5
:100E400002D1DDF810A001E0DDF80CA0A88900F4C3
:100E5000004040B10AEBCA0000EB0A1031684900BB
:100E6000B0FBF1F807E00AEBCA0000EB0A103168AA
:100E70008900B0FBF1F86420B8FBF0F00401200910
:100E8000642101FB1089A88900F4004040B13220A0
:100E900000EBC900B0FBF1F000F00700044308E0EC
:100EA000322000EB09106421B0FBF1F000F00F00DC
:100EB00004432C8106B0BDE8F087000000380140F3
:100EC000C1F30802828070471FB54FF4E1300090F3
:100ED0000020ADF80400ADF80600ADF808000C20C5
:100EE000ADF80A000020ADF80C0069460148FFF794
:100EF0007BFF1FBD0038014000BFFEE702E008C8CD
:100F0000121F08C1002AFAD170477047002001E083
:100F100001C1121F002AFBD1704700F007F8FFF74C
:100F200003FCFFF741FD00BFFEE7000010B50748D6
:100F3000FFF7FEFEFFF72EFEFFF7BAF9FFF7C4FF3B
:100F400001210248FFF7E8FE10BD00000038014013
:100F5000700F00080000002014000000FC0E0008C4
:100F6000840F000814000020040400000C0F000887
:100F7000000000000102030401020304060708093F
:040F80000204060859
:0400000508000145A9
:00000001FF
