:020000040800F2
:100000002804002045010008A3060008ED040008AC
:100010009F0600088D0100082D0E0008000000005A
:10002000000000000000000000000000190A0008A5
:100030009101000800000000290700088D0B00084E
:100040005F0100085F0100085F0100085F01000810
:100050005F0100085F010008A10200085F010008BD
:100060005F0100085F0100085F0100085F010008F0
:100070005F0100085F0100085F0100085F010008E0
:100080005F0100085F0100085F0100085F010008D0
:100090005F0100085F0100085F0100085F010008C0
:1000A0005F0100085F0100085F0100085F010008B0
:1000B0005F0100085F0100085F0100085F010008A0
:1000C0005F0100085F0100085F0100085F01000890
:1000D0005F010008190C00085F0100085F010008BB
:1000E0005F0100085F0100085F0100085F01000870
:1000F0005F0100085F0100085F0100085F01000860
:100100005F0100085F0100085F0100085F0100084F
:100110005F0100085F0100085F0100085F0100083F
:100120005F0100085F0100085F0100085F0100082F
:10013000DFF80CD000F018F800480047C50E0008A2
:10014000280400200648804706480047FEE7FEE7EF
:10015000FEE7FEE7FEE7FEE7FEE7FEE7FEE7FEE777
:10016000910B000831010008064C074D06E0E068DD
:1001700040F0010394E8070098471034AC42F6D3EE
:10018000FFF7DAFF200F0008400F000800BFFEE76E
:10019000704710B500F0B0FE00F001F810BD10B5CA
:1001A00000F05EFE00F044FE10BD00002DE9F041BD
:1001B00006460F469046002542F2107407E0601E86
:1001C00084B224B92CA000F097F8BDE8F0814FF478
:1001D00000312D4800F0C5F90128F0D000BF012101
:1001E000294800F0A6F900BF2849274800F080F907
:1001F0000028F9D00022A021234800F045FA244924
:10020000214800F075F90028E9D042F21074314617
:100210001D4800F042FA00BF1D491B4800F068F974
:100220000028F9D00FE042F2107400BF1849091FEE
:10023000154800F05DF90028F8D0795D124800F00B
:100240002CFA681CC5B24545EDDB01210E4800F0D3
:100250007CF942F2107406E02CB9601E84B20DA045
:1002600000F04AF8B1E71021074800F041F90028F2
:10027000F2D00120A9E700004275732062757379FE
:10028000204572726F7200000054004001000300AC
:100290008400070053746F70206661696C0A000067
:1002A00010B5012000F014F828B10548006880F06E
:1002B000010003490860012000F004F810BD0000AF
:1002C0000C0C014001490860704700001404014013
:1002D000014600200022074B1B6803EA0102054B80
:1002E00014331B680B4013B10AB1012000E0002059
:1002F000704700000004014010B504462146024842
:1003000000F0B8FB002010BD003801400549096825
:1003100021F01001034A1160114609680143116080
:10032000704700000020024001460020034A106888
:1003300000F03800084310607047000000200240C1
:100340001CB54FF40070ADF8040018208DF80700BC
:1003500003208DF806004FF48060ADF80000042003
:100360008DF8030001A9044800F008F86946024826
:1003700000F004F81CBD0000000801402DE9F04128
:10038000024600250026002000230024002791F8C3
:1003900003C00CF00F0591F803C00CF0100CBCF179
:1003A000000F03D091F802C04CEA050591F800C097
:1003B000BCF1000F31D0146800202BE04FF0010C8D
:1003C0000CFA00F3B1F800C00CEA03069E4220D1FB
:1003D00083004FF00F0C0CFA03F7BC4305FA03FC43
:1003E0004CEA040491F803C0BCF1280F06D14FF089
:1003F000010C0CFA00FCC2F814C00AE091F803C02A
:10040000BCF1480F05D14FF0010C0CFA00FCC2F80A
:1004100010C0401C0828D1D31460B1F800C0BCF152
:10042000FF0F34DD546800202EE000F1080C4FF07F
:10043000010808FA0CF3B1F800C00CEA03069E426A
:1004400021D183004FF00F0C0CFA03F7BC4305FADF
:1004500003FC4CEA040491F803C0BCF1280F05D159
:1004600000F1080C08FA0CF8C2F8148091F803C0E7
:10047000BCF1480F07D100F1080C4FF0010808FA51
:100480000CF8C2F81080401C0828CED35460BDE898
:10049000F08110B5044600F06FF94FF4803000F0A1
:1004A00037FA00F09DFA01281FD11020FFF72EFF28
:1004B0000220FFF739FF21464FF4803000F06CFA3C
:1004C000012000F063FA022000F074FA00BF00F08F
:1004D0000BFA0828FBD1002000F00EFA4FF48060E0
:1004E00000F03CFA002000F045FA10BD00BFFEE726
:1004F00070B502460024002500230020958A138B46
:100500001B0445EA030626F07F4404EA01068E42F6
:1005100001D1012000E0002070BD21B1028842F02D
:100520000102028004E002884FF6FE731A40028046
:10053000704721B1028842F48072028004E0028890
:100540004FF6FF631A400280704721B1028842F4DF
:100550000072028004E002884FF6FF531A400280C6
:1005600070470CB5024600200023019300930092CF
:100570000B0F019321F07F41019B1BB1009B1433B2
:10058000009303E0090C009B18330093009B1B6849
:100590000B400BB1012000E000200CBD2DE9F04321
:1005A00085B004460D460026B1460427DFF8CC800E
:1005B000A6884FF6C0700640684600F00DF9DDF8D9
:1005C00008802F48B8FBF0F01FFA80F946EA0906C8
:1005D000A68020884FF6FE71084020800026294919
:1005E000286888420CD828684000B8FBF0F087B231
:1005F000042F00DA04273E4309F10100208427E09C
:10060000E8884BF6FF71884206D1286800EB40006D
:10061000B8FBF0F087B209E0286800EBC00101EBFD
:100620000010B8FBF0F087B247F48047C7F30B0027
:1006300008B947F0010747F4004006434FF49670AD
:1006400009FB00F04FF47A7190FBF1F0401C20841C
:10065000A683208840F00100208026884FF6F530E0
:100660000640A8886989084306432680A889298905
:100670000843208105B0BDE8F083000000127A0035
:1006800040420F00A086010012B141F0010102E0DA
:100690004FF6FE731940018270470182704700BF18
:1006A000FEE7704770B5002100230F22C47804B321
:1006B000154C246804F4E064C4F5E064210AC1F137
:1006C0000403CA40447804FA03F1847814402143B7
:1006D00009010E4C0678A155047804F01F05012489
:1006E000AC4005786D11AD0005F1E025C5F800417D
:1006F00009E0047804F01F050124AC40044D06789D
:10070000761145F8264070BD0CED00E000E400E0F5
:1007100080E100E002490143024A11607047000095
:100720000000FA050CED00E07047000029B1064A10
:10073000D2690243044BDA6104E0034AD26982437E
:10074000014BDA61704700000010024029B1064AEF
:1007500092690243044B9A6104E0034A926982431E
:10076000014B9A61704700000010024010B500F084
:100770002DF900F027F810BD0F48006840F0010087
:100780000D490860084640680C4908400A4948601D
:10079000084600680A49084007490860084600689A
:1007A00020F4802008600846406820F4FE0048607D
:1007B0004FF41F0088607047001002400000FFF8EF
:1007C000FFFFF6FE10B501214805FFF7AFFF01213D
:1007D0000820FFF7BBFF10BD30B500210022002428
:1007E00000232D4D6D6805F00C0121B1042905D0C1
:1007F000082923D105E0294D056022E0274D056039
:100800001FE0254D6D6805F47012234D6D6805F4E9
:100810008034022505EB92421CB9214D55430560F9
:100820000BE01D4D6D6805F400351DB11C4D5543A1
:10083000056002E0194D5543056002E0174D056063
:1008400000BF00BF144D6D6805F0F0010909154D9A
:100850006B5C0568DD4045600F4D6D6805F4E06137
:10086000090A104D6B5C4568DD4085600A4D6D6876
:1008700005F46051C90A0B4D6B5C4568DD40C560ED
:10088000054D6D6805F44041890B074D6B5CC568EB
:10089000B5FBF3F5056130BD0010024000127A008F
:1008A00000093D00000000201000002010B50146A6
:1008B0000022002300204A11012A02D1094C23689A
:1008C00006E0022A02D1074C236A01E0054C636A64
:1008D00001F01F02012494401C400CB1012000E0F3
:1008E000002010BD001002400248406800F00C00DB
:1008F000704700000010024001460020034A506883
:1009000020F0F000084350607047000000100240E3
:100910001149096821F480310F4A116011460968B4
:1009200021F480211160B0F5803F03D0B0F5802F15
:100930000ED106E00849096841F48031064A116089
:1009400007E00549096841F4A021034A116000E06D
:1009500000BF00BF704700000010024001460020A9
:10096000034A506820F4E06008435060704700007C
:100970000010024001460020034A506820F46050F5
:1009800040EAC1005060704700100240014908660B
:10099000704700000000424202460020044B5868A5
:1009A00020F47C1042EA01031843014B5860704761
:1009B0000010024001460020034A506820F0030066
:1009C00008435060704700000010024010B501213C
:1009D0000420FFF7BBFE01218803FFF7B7FE10BD1F
:1009E00038B5002000900024002500BF3120FFF71B
:1009F0005DFF05460098401C00900098B0F5A06F80
:100A000001D0002DF2D03120FFF750FF08B10124B2
:100A100000E00024204638BD704700002DE9F04179
:100A200007460D46164600240BE0295D384600F0C7
:100A3000E0F900BF8021054800F00EF90028F9D048
:100A4000641CB442F1D3BDE8F081000000380140DD
:100A500070B504460D462946204600F0CAF900BF8D
:100A60008021034800F0F8F80028F9D070BD00009C
:100A70000038014070B506460C4600250CE0615D6B
:100A8000304600F0B6F900BF8021054800F0E4F8D8
:100A90000028F9D0681CC5B2605D0028EFD170BD98
:100AA0000038014010B500F001F810BD0CB5002071
:100AB000019000903348006840F48030314908606C
:100AC00000BF3048006800F4003000900198401CDE
:100AD0000190009818B90198B0F5A06FF1D129489C
:100AE000006800F4003010B10120009001E0002007
:100AF00000900098012843D12348006840F010007E
:100B0000214908600846006820F003000860084694
:100B1000006840F0020008601A48406819494860BF
:100B20000846406848600846406840F48060486075
:100B30000846406820F47C1048600846406840F44D
:100B4000E81048600846006840F08070086000BF08
:100B50000C48006800F000700028F9D0094840688F
:100B600020F00300074948600846406840F0020052
:100B7000486000BF0348406800F00C000828F9D125
:100B80000CBD000000100240002002407047000031
:100B900010B51348006840F001001149086008468C
:100BA0004068104908400E494860084600680E49F0
:100BB00008400B4908600846006820F4802008605F
:100BC0000846406820F4FE0048604FF41F0088602B
:100BD000FFF768FF4FF000600449086010BD000097
:100BE000001002400000FFF8FFFFF6FE08ED00E0F5
:100BF00008B54FF4C060FFF78DFD25208DF800008B
:100C000001208DF801008DF802008DF80300684680
:100C1000FFF748FD08BD000010B5002440F2255143
:100C2000064800F026F838B1044800F0DDF8C4B2F8
:100C300021460248FFF70CFF10BD000000380140BC
:100C400021B1828942F40052828104E082894DF60A
:100C5000FF731A408281704702460020B1F5007F81
:100C600000D100BF13880B400BB1012000E0002031
:100C7000704770B50246002400230025002040F68E
:100C80006A16B14200D100BFC1F3421501F01F0343
:100C9000012606FA03F3012D02D19689334006E0BE
:100CA000022D02D1168A334001E0968A33400C129D
:100CB000012606FA04F41688344013B10CB1012061
:100CC00000E0002070BDF0B503460024002600259A
:100CD000002040F66A17B94200D100BF1846C1F3A0
:100CE000421401F01F06012707FA06F5012C01D175
:100CF0000C3004E0022C01D1103000E014301AB1A5
:100D000007682F43076002E00768AF430760F0BD44
:100D10002DE9F04786B005460E460024A24600BFE6
:100D2000A1460027B08900B100BF2F462C8A4CF69F
:100D3000FF700440F08804432C82AC894EF6F31017
:100D40000440B08831890843718908430443AC8169
:100D5000AC8A4FF6FF400440B0890443AC8201A83E
:100D6000FFF73AFD1F48874202D1DDF810A001E0ED
:100D7000DDF80CA0A88900F4004040B10AEBCA00DD
:100D800000EB0A1031684900B0FBF1F807E00AEB0C
:100D9000CA0000EB0A1031688900B0FBF1F864204A
:100DA000B8FBF0F004012009642101FB1089A88937
:100DB00000F4004040B1322000EBC900B0FBF1F07C
:100DC00000F00700044308E0322000EB0910642122
:100DD000B0FBF1F000F00F0004432C8106B0BDE839
:100DE000F08700000038014001468888C0F3080001
:100DF0007047C1F308028280704700001FB54FF4AE
:100E0000E13000900020ADF80400ADF80600ADF828
:100E100008000C20ADF80A000020ADF80C0069466F
:100E20000148FFF775FF1FBD0038014000BFFEE716
:100E300008B54020ADF8000003208DF802001C200A
:100E40008DF8030069460548FFF798FA8020ADF851
:100E5000000069460148FFF791FA08BD000C014007
:100E60001FB50E4800900020ADF804004BF6FF704F
:100E7000ADF806000A20ADF808004FF48060ADF828
:100E80000A000001ADF80C0069460548FFF786FB33
:100E900001210348FFF741FB1FBD0000801A060037
:100EA0000054004002E008C8121F08C1002AFAD10D
:100EB00070477047002001E001C1121F002AFBD1DA
:100EC000704700004FF4E010FFF7E3FAFFF74EFC25
:100ED000FFF75FF9082205490020FFF767F90822AC
:100EE00003490448FFF79AFD00BFFEE71400002005
:100EF0001C0000200038014010B5FFF721FAFFF771
:100F00007DFFFFF775FE012240F225510348FFF7F0
:100F1000DAFE01210148FFF793FE10BD00380140C1
:100F2000400F00080000002024000000A40E00086C
:100F3000640F00082400002004040000B40E000820
:100F4000000000000102030401020304060708096F
:100F50000204060801020304050607080000000059
:040F6000000000008D
:0400000508000145A9
:00000001FF
