:020000040800F2
:100000000004002045010008E1030008D9030008AE
:10001000DD0300088D010008450A0008000000000B
:10002000000000000000000000000000A90500081A
:100030009101000800000000E3030008B506000875
:100040005F0100085F0100085F0100085F01000810
:100050005F0100085F010008950100085F010008CA
:100060005F0100085F0100085F0100085F010008F0
:100070005F0100085F0100085F0100085F010008E0
:100080005F0100085F0100085F0100085F010008D0
:100090005F0100085F0100085F0100085F010008C0
:1000A0005F0100085F0100085F0100085F010008B0
:1000B0005F0100085F0100085F0100085F010008A0
:1000C0005F0100085F0100085F0100085F01000890
:1000D0005F010008A10900085F0100085F01000836
:1000E0005F0100085F0100085F0100085F01000870
:1000F0005F0100085F0100085F0100085F01000860
:100100005F0100085F0100085F0100085F0100084F
:100110005F0100085F0100085F0100085F0100083F
:100120005F0100085F0100085F0100085F0100082F
:10013000DFF80CD000F018F800480047670A000804
:10014000000400200648804706480047FEE7FEE717
:10015000FEE7FEE7FEE7FEE7FEE7FEE7FEE7FEE777
:10016000B906000831010008064C074D06E0E068BA
:1001700040F0010394E8070098471034AC42F6D3EE
:10018000FFF7DAFF780A0008880A000800BFFEE7D8
:100190007047000010B5012000F014F828B10548A0
:1001A000006880F0010003490860012000F004F8B5
:1001B00010BD00000C0C01400149086070470000B0
:1001C00014040140014600200022074B1B6803EA8B
:1001D0000102054B14331B680B4013B10AB1012017
:1001E00000E0002070470000000401400549096854
:1001F00021F01001034A11601146096801431160A2
:10020000704700000020024001460020034A1068A9
:1002100000F03800084310607047000000200240E2
:1002200008B518208DF8030003208DF80200402047
:10023000ADF8000069460A4800F016F88020ADF8D5
:1002400000006946074800F00FF818208DF80300F9
:100250004020ADF800006946024800F005F808BDEE
:1002600000100140000801402DE9F0410246002540
:100270000026002000230024002791F803C00CF082
:100280000F0591F803C00CF0100CBCF1000F03D067
:1002900091F802C04CEA050591F800C0BCF1000FCE
:1002A00031D0146800202BE04FF0010C0CFA00F361
:1002B000B1F800C00CEA03069E4220D183004FF043
:1002C0000F0C0CFA03F7BC4305FA03FC4CEA0404D8
:1002D00091F803C0BCF1280F06D14FF0010C0CFAC5
:1002E00000FCC2F814C00AE091F803C0BCF1480F4A
:1002F00005D14FF0010C0CFA00FCC2F810C0401CF4
:100300000828D1D31460B1F800C0BCF1FF0F34DD70
:10031000546800202EE000F1080C4FF0010808FAA4
:100320000CF3B1F800C00CEA03069E4221D1830011
:100330004FF00F0C0CFA03F7BC4305FA03FC4CEA30
:10034000040491F803C0BCF1280F05D100F1080C9A
:1003500008FA0CF8C2F8148091F803C0BCF1480FF9
:1003600007D100F1080C4FF0010808FA0CF8C2F8A8
:100370001080401C0828CED35460BDE8F08110B531
:10038000044600F03FF84FF4803000F093F800F09E
:10039000EFF801281FD11020FFF728FF0220FFF7F8
:1003A00033FF21464FF4803000F0C8F8012000F000
:1003B000BFF8022000F0D0F800BF00F067F808286E
:1003C000FBD1002000F06AF84FF4806000F098F84C
:1003D000002000F0A1F810BD00BFFEE700BFFEE75F
:1003E0007047704729B1064A92690243044B9A61EB
:1003F00004E0034A92698243014B9A61704700000E
:10040000001002400F48006840F001000D490860EC
:10041000084640680C4908400A4948600846006898
:100420000A490840074908600846006820F480200F
:1004300008600846406820F4FE0048604FF41F0042
:1004400088607047001002400000FFF8FFFFF6FED2
:1004500010B501460022002300204A11012A02D1D2
:10046000094C236806E0022A02D1074C236A01E006
:10047000054C636A01F01F02012494401C400CB13A
:10048000012000E0002010BD00100240024840683A
:1004900000F00C00704700000010024001460020F0
:1004A000034A506820F0F000084350607047000095
:1004B000001002401149096821F480310F4A11608F
:1004C0001146096821F480211160B0F5803F03D006
:1004D000B0F5802F0ED106E00849096841F480315B
:1004E000064A116007E00549096841F4A021034A62
:1004F000116000E000BF00BF704700000010024024
:1005000001460020034A506820F4E0600843506030
:10051000704700000010024001460020034A506866
:1005200020F4605040EAC100506070470010024063
:100530000149086670470000000042420246002060
:10054000044B586820F47C1042EA01031843014B25
:10055000586070470010024001460020034A50686E
:1005600020F0030008435060704700000010024074
:1005700038B5002000900024002500BF3120FFF78F
:1005800067FF05460098401C00900098B0F5A06FEA
:1005900001D0002DF2D03120FFF75AFF08B101241D
:1005A00000E00024204638BD7047000010B5044626
:1005B0002146054800F042FA00BF8021024800F0C1
:1005C00001FA0028F9D010BD0038014010B500F044
:1005D00001F810BD0CB50020019000903348006870
:1005E00040F480303149086000BF3048006800F4B2
:1005F000003000900198401C0190009818B90198B3
:10060000B0F5A06FF1D12948006800F4003010B1B6
:100610000120009001E0002000900098012843D1C3
:100620002348006840F0100021490860084600682F
:1006300020F0030008600846006840F002000860EF
:100640001A484068194948600846406848600846AA
:10065000406840F4806048600846406820F47C10A0
:1006600048600846406840F4E81048600846006862
:1006700040F08070086000BF0C48006800F0007017
:100680000028F9D00948406820F003000749486075
:100690000846406840F00200486000BF03484068D8
:1006A00000F00C000828F9D10CBD00000010024039
:1006B000002002407047000010B51348006840F069
:1006C00001001149086008464068104908400E4979
:1006D0004860084600680E4908400B490860084613
:1006E000006820F4802008600846406820F4FE007E
:1006F00048604FF41F008860FFF768FF4FF000600C
:100700000449086010BD0000001002400000FFF81E
:10071000FFFFF6FE08ED00E010B500F063F8FFF70C
:100720007FFD00F001F810BD00B58BB00020ADF8E2
:100730002600ADF8220040F2E730ADF82400472053
:10074000ADF8200000208DF8280008A9244800F00A
:10075000D5F86020ADF810000020ADF81C004FF473
:100760008070ADF81E000020ADF81800ADF81A003A
:100770000120ADF812000420ADF814004FF4C87049
:10078000ADF8160004A9164800F062F808211448D4
:1007900000F0AAF84FF48040ADF80C008010ADF8DE
:1007A00008004000ADF80A000B20ADF806004FF439
:1007B0008070ADF804008000ADF802004000ADF894
:1007C00000006946064800F017F80121044800F0CF
:1007D00023F80121024800F02BF80BB000BD000007
:1007E0000034014010B501211420FFF7FBFD012169
:1007F0004803FFF7F7FD10BD0A884B881A438B8822
:100800001A43CB881A430B891A434B891A438B89A5
:100810001A43A0F84420704721B1028842F0010237
:10082000028004E002884FF6FE731A40028070478F
:1008300031B1B0F8442042F40042A0F8442005E071
:10084000B0F84420C2F30E02A0F844207047000024
:1008500070B5002400220023058C4FF6FE7635404B
:100860000584028C8388048B4FF68F752C40B51E4F
:100870002C400D882C43751E2A400D892A434D8833
:100880002A43144DA8420BD0134DA84208D0134D53
:10089000A84205D0124DA84202D0124DA84213D151
:1008A0004FF6F7752A404D892A434FF6FB752A40CB
:1008B0008D882A434FF6FF652B404FF6FF552B409E
:1008C0008D892B43CD892B4383800483CD888586F6
:1008D000028470BD002C0140003401400040014002
:1008E00000440140004801400A460021018B4FF6B8
:1008F000F7731940114301837047000000220288FA
:100900001D4B98420ED01D4B98420BD0B0F1804F3A
:1009100008D01B4B984205D01A4B984202D01A4B74
:10092000984204D14FF68F731A404B881A43174BE5
:10093000984207D0164B984204D04FF6FF431A4016
:10094000CB881A4302808B8883850B8803850A4BEA
:1009500098420BD0094B984208D00E4B984205D0D4
:100960000D4B984202D00D4B984201D10B7A038671
:100970000123838270470000002C014000340140B5
:100980000004004000080040000C0040001000403F
:100990000014004000400140004401400048014074
:1009A00010B5002440F22551054800F018F830B188
:1009B000034800F03EF8C4B22046FFF7F7FD10BD33
:1009C0000038014002460020B1F5007F00D100BF91
:1009D00013880B400BB1012000E00020704770B578
:1009E0000246002400230025002040F66A16B1428A
:1009F00000D100BFC1F3421501F01F03012606FA22
:100A000003F3012D02D19689334006E0022D02D175
:100A1000168A334001E0968A33400C12012606FA0A
:100A200004F41688344013B10CB1012000E000201A
:100A300070BD01468888C0F308007047C1F3080202
:100A40008280704700BFFEE702E008C8121F08C19D
:100A5000002AFAD170477047002001E001C1121F3F
:100A6000002AFBD170474FF4E010FFF788FCFFF736
:100A700053FE00BFFEE70000880A000800000020C7
:080A800000040000580A000800
:0400000508000145A9
:00000001FF
