:020000040800F2
:100000000004002045010008D5040008CD040008C4
:10001000D10400088D0100081D090008000000003F
:100020000000000000000000000000004907000878
:100030009101000800000000810500083508000853
:100040005F0100085F0100085F0100085F01000810
:100050005F0100085F010008950100085F010008CA
:100060005F0100085F0100085F0100085F010008F0
:100070005F0100085F0100085F0100085F010008E0
:100080005F0100085F0100085F0100085F010008D0
:100090005F0100085F0100085F0100085F010008C0
:1000A0005F0100085F0100085F0100085F010008B0
:1000B0005F0100085F0100085F0100085F010008A0
:1000C0005F0100085F0100085F0100085F01000890
:1000D0005F0100085F0100085F0100085F01000880
:1000E0005F0100085F0100085F0100085F01000870
:1000F0005F0100085F0100085F0100085F01000860
:100100005F0100085F0100085F0100085F0100084F
:100110005F0100085F0100085F0100085F0100083F
:100120005F0100085F0100085F0100085F0100082F
:10013000DFF80CD000F018F800480047410900082B
:10014000000400200648804706480047FEE7FEE717
:10015000FEE7FEE7FEE7FEE7FEE7FEE7FEE7FEE777
:100160003908000831010008064C074D06E0E06838
:1001700040F0010394E8070098471034AC42F6D3EE
:10018000FFF7DAFF90090008A009000800BFFEE7AA
:100190007047000010B5012000F024F828B1054890
:1001A000006880F0010003490860012000F004F8B5
:1001B00010BD00000C0C01400149086070470000B0
:1001C000140401401CB50120009000208DF80400AB
:1001D00008208DF8050001208DF80600684600F023
:1001E00015F81CBD014600200022074B1B6803EADE
:1001F0000102054B14331B680B4013B10AB10120F7
:1002000000E0002070470000000401400021234965
:100210008279002A3AD00A46126803689A430B464C
:100220001A600A1D126803689A430B1D1A6002794E
:1002300011440A6803681A430A60184A08321268AF
:1002400003689A43154B08331A601A1D1268036835
:100250009A43124B0C331A604279102A0ED11A1F9E
:10026000126803681A430D4B08331A601A1D12688E
:1002700003681A43094B0C331A600DE007494279B1
:1002800011440A6803681A430A6005E002791144C0
:100290000A6803689A430A6070470000000401403E
:1002A0000549096821F01001034A116011460968E7
:1002B0000143116070470000002002400146002009
:1002C000034A106800F038000843106070470000CF
:1002D0000020024008B50120ADF8000004208DF890
:1002E00003006946034800F039F80021084600F091
:1002F00015F808BD0008014008B50120ADF8000060
:1003000010208DF8030001208DF802006946024894
:1003100000F024F808BD0000000C014030B50022B8
:100320008B071C0F0F2303FA04F20B4B8C1053F8AE
:1003300024309343084C8D1044F8253023468C100C
:1003400053F824308C07240F00FA04F42343024CA2
:100350008D1044F8253030BD080001402DE9F041F2
:10036000024600250026002000230024002791F8E3
:1003700003C00CF00F0591F803C00CF0100CBCF199
:10038000000F03D091F802C04CEA050591F800C0B7
:10039000BCF1000F31D0146800202BE04FF0010CAD
:1003A0000CFA00F3B1F800C00CEA03069E4220D11B
:1003B00083004FF00F0C0CFA03F7BC4305FA03FC63
:1003C0004CEA040491F803C0BCF1280F06D14FF0A9
:1003D000010C0CFA00FCC2F814C00AE091F803C04A
:1003E000BCF1480F05D14FF0010C0CFA00FCC2F82B
:1003F00010C0401C0828D1D31460B1F800C0BCF173
:10040000FF0F34DD546800202EE000F1080C4FF09F
:10041000010808FA0CF3B1F800C00CEA03069E428A
:1004200021D183004FF00F0C0CFA03F7BC4305FAFF
:1004300003FC4CEA040491F803C0BCF1280F05D179
:1004400000F1080C08FA0CF8C2F8148091F803C007
:10045000BCF1480F07D100F1080C4FF0010808FA71
:100460000CF8C2F81080401C0828CED35460BDE8B8
:10047000F08110B5044600F095F84FF4803000F09C
:10048000E9F800F045F901281FD11020FFF708FF17
:100490000220FFF713FF21464FF4803000F01EF9D1
:1004A000012000F015F9022000F026F900BF00F04D
:1004B000BDF80828FBD1002000F0C0F84FF48060A0
:1004C00000F0EEF8002000F0F7F810BD00BFFEE7E6
:1004D00000BFFEE7704708B54FF4C06000F046F873
:1004E00006208DF8000001208DF801008DF8020033
:1004F0008DF80300684600F001F808BD70B50021D2
:1005000000230F22C47804B3154C246804F4E0647B
:10051000C4F5E064210AC1F10403CA40447804FA36
:1005200003F184781440214309010E4C0678A1554B
:10053000047804F01F050124AC4005786D11AD006E
:1005400005F1E025C5F8004109E0047804F01F0535
:100550000124AC40044D0678761145F8264070BD64
:100560000CED00E000E400E080E100E0024901431E
:10057000024A1160704700000000FA050CED00E02F
:100580007047000029B1064A92690243044B9A6100
:1005900004E0034A92698243014B9A61704700006C
:1005A000001002400F48006840F001000D4908604B
:1005B000084640680C4908400A49486008460068F7
:1005C0000A490840074908600846006820F480206E
:1005D00008600846406820F4FE0048604FF41F00A1
:1005E00088607047001002400000FFF8FFFFF6FE31
:1005F00010B501460022002300204A11012A02D131
:10060000094C236806E0022A02D1074C236A01E064
:10061000054C636A01F01F02012494401C400CB198
:10062000012000E0002010BD001002400248406898
:1006300000F00C007047000000100240014600204E
:10064000034A506820F0F0000843506070470000F3
:10065000001002401149096821F480310F4A1160ED
:100660001146096821F480211160B0F5803F03D064
:10067000B0F5802F0ED106E00849096841F48031B9
:10068000064A116007E00549096841F4A021034AC0
:10069000116000E000BF00BF704700000010024082
:1006A00001460020034A506820F4E060084350608F
:1006B000704700000010024001460020034A5068C5
:1006C00020F4605040EAC1005060704700100240C2
:1006D00001490866704700000000424202460020BF
:1006E000044B586820F47C1042EA01031843014B84
:1006F000586070470010024001460020034A5068CD
:1007000020F00300084350607047000000100240D2
:1007100038B5002000900024002500BF3120FFF7ED
:1007200067FF05460098401C00900098B0F5A06F48
:1007300001D0002DF2D03120FFF75AFF08B101247B
:1007400000E00024204638BD704710B500F002F8E4
:1007500010BD00000CB500200190009033480068E7
:1007600040F480303149086000BF3048006800F430
:10077000003000900198401C0190009818B9019831
:10078000B0F5A06FF1D12948006800F4003010B135
:100790000120009001E0002000900098012843D142
:1007A0002348006840F010002149086008460068AE
:1007B00020F0030008600846006840F0020008606E
:1007C0001A48406819494860084640684860084629
:1007D000406840F4806048600846406820F47C101F
:1007E00048600846406840F4E810486008460068E1
:1007F00040F08070086000BF0C48006800F0007096
:100800000028F9D00948406820F0030007494860F3
:100810000846406840F00200486000BF0348406856
:1008200000F00C000828F9D10CBD000000100240B7
:10083000002002407047000010B51348006840F0E7
:1008400001001149086008464068104908400E49F7
:100850004860084600680E4908400B490860084691
:10086000006820F4802008600846406820F4FE00FC
:1008700048604FF41F008860FFF767FF4FF000608B
:100880000449086010BD0000001002400000FFF89D
:10089000FFFFF6FE08ED00E0F0B505460B46B3F1AC
:1008A000807F00D31FE023F07F40401E4FF0E02404
:1008B000606160170F24002809DA26074FEA166CDA
:1008C000144E00F00F073F1F06F807C003E026078D
:1008D000370E114E375400BF00204FF0E024A061C6
:1008E0000720206100BF002208E000BF4FF0E02099
:1008F000006900F480300028F8D0521CAA42F4D3DA
:100900004FF0E020006920F001004FF0E023186173
:10091000F0BD000018ED00E000E400E000BFFEE7DD
:1009200002E008C8121F08C1002AFAD170477047B8
:10093000002001E001C1121F002AFBD17047000016
:100940004FF4E010FFF795FD01210846FFF71AFE6E
:1009500001210420FFF716FE01210820FFF712FEF7
:10096000FFF7B9FDFFF7B6FCFFF7C6FCFFF72AFC5F
:1009700009E00548006880F0010003490860034968
:10098000C820FFF789FFF4E70C0C01404019010073
:10099000A009000800000020000400003009000841
:0400000508000145A9
:00000001FF
