:020000040800F2
:10000000200400204501000801040008F90300084D
:10001000FD030008B9010008790D00080000000088
:10002000000000000000000000000000BD07000804
:10003000BD01000800000000AD040008C908000868
:100040005F0100085F0100085F0100085F01000810
:100050005F0100085F010008C10100085F0100089E
:100060005F0100085F0100085F0100085F010008F0
:100070005F0100085F0100085F0100085F010008E0
:100080005F0100085F0100085F0100085F010008D0
:100090005F0100085F0100085F0100085F010008C0
:1000A0005F0100085F0100085F0100085F010008B0
:1000B0002D0900085F0100085F0100085F010008CA
:1000C0005F0100085F0100085F0100085F01000890
:1000D0005F010008CD0A00085F0100085F01000809
:1000E0005F0100085F0100085F0100085F01000870
:1000F0005F0100085F0100085F0100085F01000860
:100100005F0100085F0100085F0100085F0100084F
:100110005F0100085F0100085F0100085F0100083F
:100120005F0100085F0100085F0100085F0100082F
:10013000DFF80CD000F02EF800480047350F00081B
:10014000200400200648804706480047FEE7FEE7F7
:10015000FEE7FEE7FEE7FEE7FEE7FEE7FEE7FEE777
:10016000CD0800083101000830B50B4601460020DB
:100170002022012409E021FA02F59D4205D303FA69
:1001800002F5491B04FA02F52844151EA2F10102EA
:10019000F1DC30BD064C074D06E0E06840F001039D
:1001A00094E8070098471034AC42F6D3FFF7C4FF39
:1001B000B80F0008D80F000800BFFEE77047000026
:1001C00010B5012000F014F828B10548006880F04F
:1001D000010003490860012000F004F810BD000090
:1001E0000C0C0140014908607047000014040140F4
:1001F000014600200022074B1B6803EA0102054B61
:1002000014331B680B4013B10AB1012000E0002039
:1002100070470000000401400549096821F0100101
:10022000034A1160114609680143116070470000DC
:100230000020024001460020034A106800F0380008
:100240000843106070470000002002401CB54FF4C6
:100250000070ADF8040018208DF8070003208DF819
:1002600006004FF48060ADF8000004208DF8030014
:1002700001A9044800F008F86946024800F004F8B3
:100280001CBD0000000801402DE9F0410246002598
:100290000026002000230024002791F803C00CF062
:1002A0000F0591F803C00CF0100CBCF1000F03D047
:1002B00091F802C04CEA050591F800C0BCF1000FAE
:1002C00031D0146800202BE04FF0010C0CFA00F341
:1002D000B1F800C00CEA03069E4220D183004FF023
:1002E0000F0C0CFA03F7BC4305FA03FC4CEA0404B8
:1002F00091F803C0BCF1280F06D14FF0010C0CFAA5
:1003000000FCC2F814C00AE091F803C0BCF1480F29
:1003100005D14FF0010C0CFA00FCC2F810C0401CD3
:100320000828D1D31460B1F800C0BCF1FF0F34DD50
:10033000546800202EE000F1080C4FF0010808FA84
:100340000CF3B1F800C00CEA03069E4221D18300F1
:100350004FF00F0C0CFA03F7BC4305FA03FC4CEA10
:10036000040491F803C0BCF1280F05D100F1080C7A
:1003700008FA0CF8C2F8148091F803C0BCF1480FD9
:1003800007D100F1080C4FF0010808FA0CF8C2F888
:100390001080401C0828CED35460BDE8F08110B511
:1003A000044600F0C5F84FF4803000F083F900F007
:1003B000E9F901281FD11020FFF72EFF0220FFF7D7
:1003C00039FF21464FF4803000F0B8F9012000F0E9
:1003D000AFF9022000F0C0F900BF00F057F908287B
:1003E000FBD1002000F05AF94FF4806000F088F94A
:1003F000002000F091F910BD00BFFEE700BFFEE74E
:10040000704708B54FF4C06000F046F81C208DF826
:10041000000001208DF801008DF802008DF8030026
:10042000684600F001F808BD70B5002100230F22D6
:10043000C47804B3154C246804F4E064C4F5E064A3
:10044000210AC1F10403CA40447804FA03F1847814
:100450001440214309010E4C0678A155047804F09C
:100460001F050124AC4005786D11AD0005F1E025B4
:10047000C5F8004109E0047804F01F050124AC40F0
:10048000044D0678761145F8264070BD0CED00E06D
:1004900000E400E080E100E002490143024A11600B
:1004A000704700000000FA050CED00E07047000006
:1004B00029B1064AD2690243044BDA6104E0034AD7
:1004C000D2698243014BDA6170470000001002409C
:1004D00029B1064A12690243044B1A6104E0034A37
:1004E00012698243014B1A617047000000100240FC
:1004F00029B1064A92690243044B9A6104E0034A17
:1005000092698243014B9A617047000000100240DB
:1005100029B1064AD2680243044BDA6004E0034A78
:10052000D2688243014BDA6070470000001002403D
:100530000F48006840F001000D4908600846406817
:100540000C4908400A494860084600680A490840C2
:10055000074908600846006820F4802008600846C3
:10056000406820F4FE0048604FF41F008860704728
:10057000001002400000FFF8FFFFF6FE30B500213A
:100580000022002400232D4D6D6805F00C0121B1DF
:10059000042905D0082923D105E0294D056022E072
:1005A000274D05601FE0254D6D6805F47012234D41
:1005B0006D6805F48034022505EB92421CB9214D8B
:1005C000554305600BE01D4D6D6805F400351DB108
:1005D0001C4D5543056002E0194D5543056002E08E
:1005E000174D056000BF00BF144D6D6805F0F001A8
:1005F0000909154D6B5C0568DD4045600F4D6D6860
:1006000005F4E061090A104D6B5C4568DD408560CA
:100610000A4D6D6805F46051C90A0B4D6B5C456865
:10062000DD40C560054D6D6805F44041890B074DFF
:100630006B5CC568B5FBF3F5056130BD0010024089
:1006400000127A0000093D00000000201000002088
:1006500010B501460022002300204A11012A02D1D0
:10066000094C236806E0022A02D1074C236A01E004
:10067000054C636A01F01F02012494401C400CB138
:10068000012000E0002010BD001002400248406838
:1006900000F00C00704700000010024001460020EE
:1006A000034A506820F0F000084350607047000093
:1006B000001002401149096821F480310F4A11608D
:1006C0001146096821F480211160B0F5803F03D004
:1006D000B0F5802F0ED106E00849096841F4803159
:1006E000064A116007E00549096841F4A021034A60
:1006F000116000E000BF00BF704700000010024022
:1007000001460020034A506820F4E060084350602E
:10071000704700000010024001460020034A506864
:1007200020F4605040EAC100506070470010024061
:10073000014908667047000000004242024600205E
:10074000044B586820F47C1042EA01031843014B23
:10075000586070470010024001460020034A50686C
:1007600020F0030008435060704700000010024072
:1007700010B501210420FFF7BBFE01218803FFF71C
:10078000B7FE10BD38B5002000900024002500BF42
:100790003120FFF75DFF05460098401C009000984F
:1007A000B0F5A06F01D0002DF2D03120FFF750FF3F
:1007B00008B1012400E00024204638BD7047000045
:1007C00010B504462146054800F0B9FA00BF802163
:1007D000024800F0E7F90028F9D010BD00380140C8
:1007E00010B500F001F810BD0CB50020019000908C
:1007F0003348006840F480303149086000BF304819
:10080000006800F4003000900198401C01900098AE
:1008100018B90198B0F5A06FF1D12948006800F42B
:10082000003010B10120009001E0002000900098FD
:10083000012843D12348006840F010002149086096
:100840000846006820F0030008600846006840F091
:10085000020008601A484068194948600846406824
:1008600048600846406840F4806048600846406838
:1008700020F47C1048600846406840F4E810486066
:100880000846006840F08070086000BF0C480068AF
:1008900000F000700028F9D00948406820F00300FB
:1008A000074948600846406840F00200486000BFC1
:1008B0000348406800F00C000828F9D10CBD000086
:1008C00000100240002002407047000010B513489D
:1008D000006840F00100114908600846406810496E
:1008E00008400E494860084600680E4908400B4918
:1008F00008600846006820F48020086008464068C8
:1009000020F4FE0048604FF41F008860FFF768FF86
:100910004FF000600449086010BD00000010024064
:100920000000FFF8FFFFF6FE08ED00E010B5012122
:10093000880700F04BF8012804D105480088401CC6
:10094000034908800121880700F031F810BD00003C
:100950001400002010B500F024F8FFF752FD00F05D
:1009600001F810BD0EB50020ADF80600ADF802008C
:1009700040F2E730ADF804004720ADF80000002059
:100980008DF8080069464FF0804000F039F80122E8
:100990001146900700F02BF80121880700F00AF8B3
:1009A0000EBD10B501210846FFF782FD10BDCA43F8
:1009B0000282704721B1028842F00102028004E005
:1009C00002884FF6FE731A400280704730B5024627
:1009D000002000230024158A05EA0103958905EA11
:1009E000010413B10CB1012000E0002030BD1AB1A8
:1009F00083890B43838102E083898B438381704722
:100A0000002202881D4B98420ED01D4B98420BD0FD
:100A1000B0F1804F08D01B4B984205D01A4B98423A
:100A200002D01A4B984204D14FF68F731A404B886C
:100A30001A43174B984207D0164B984204D04FF6F2
:100A4000FF431A40CB881A4302808B8883850B882A
:100A500003850A4B98420BD0094B984208D00E4BA5
:100A6000984205D00D4B984202D00D4B984201D1CF
:100A70000B7A03860123838270470000002C01401B
:100A8000003401400004004000080040000C004019
:100A900000100040001400400040014000440140AC
:100AA0000048014008B54FF4C060FFF7F5FC252071
:100AB0008DF8000001208DF801008DF802008DF8FE
:100AC00003006846FFF7B0FC08BD000010B5002425
:100AD00040F22551054800F072F830B1034800F0AB
:100AE00029F9C4B22046FFF76BFE10BD0038014063
:100AF00021B1828942F40052828104E082894DF65C
:100B0000FF731A408281704710B504462048844222
:100B100009D101218803FFF7FBFC00214FF480403D
:100B2000FFF7F6FC32E01B48844209D1012148045A
:100B3000FFF7CEFC00214FF40030FFF7C9FC25E0A1
:100B40001548844209D101218804FFF7C1FC002126
:100B50004FF48020FFF7BCFC18E01048844209D114
:100B60000121C804FFF7B4FC00214FF40020FFF777
:100B7000AFFC0BE00A48844208D101210805FFF7C9
:100B8000A7FC00214FF48010FFF7A2FC10BD00006D
:100B9000003801400044004000480040004C004044
:100BA0000050004002460020B1F5007F00D100BF98
:100BB00013880B400BB1012000E00020704770B596
:100BC0000246002400230025002040F66A16B142A8
:100BD00000D100BFC1F3421501F01F03012606FA40
:100BE00003F3012D02D19689334006E0022D02D194
:100BF000168A334001E0968A33400C12012606FA29
:100C000004F41688344013B10CB1012000E0002038
:100C100070BDF0B50346002400260025002040F6F4
:100C20006A17B94200D100BF1846C1F3421401F05F
:100C30001F06012707FA06F5012C01D10C3004E04C
:100C4000022C01D1103000E014301AB107682F4394
:100C5000076002E00768AF430760F0BD2DE9F04789
:100C600086B005460E460024A24600BFA1460027D6
:100C7000B08900B100BF2F462C8A4CF6FF700440AB
:100C8000F08804432C82AC894EF6F3100440B088FF
:100C900031890843718908430443AC81AC8A4FF61B
:100CA000FF400440B0890443AC8201A8FFF766FC12
:100CB0001F48874202D1DDF810A001E0DDF80CA04A
:100CC000A88900F4004040B10AEBCA0000EB0A100A
:100CD00031684900B0FBF1F807E00AEBCA0000EB0D
:100CE0000A1031688900B0FBF1F86420B8FBF0F01D
:100CF00004012009642101FB1089A88900F4004047
:100D000040B1322000EBC900B0FBF1F000F0070069
:100D1000044308E0322000EB09106421B0FBF1F03D
:100D200000F00F0004432C8106B0BDE8F0870000FE
:100D30000038014001468888C0F308007047C1F3BD
:100D400008028280704700001FB54FF4E130009028
:100D50000020ADF80400ADF80600ADF808000C2046
:100D6000ADF80A000020ADF80C0069460148FFF715
:100D700075FF1FBD0038014000BFFEE70FB4054BF3
:100D800010B503A9044A029800F018F810BC5DF8E9
:100D900014FB0000110F00081800002002E008C832
:100DA000121F08C1002AFAD170477047002001E0E5
:100DB00001C1121F002AFBD1704700002DE9FF4F2F
:100DC00089B09B460446002506E025280BD05A46EC
:100DD0000B999047641C6D1C20780028F5D10DB04C
:100DE0002846BDE8F08F0027B8460122474900E0B9
:100DF000074314F8013F203B02FA03F00842F7D101
:100E000020782E2819D114F8010F47F004072A285A
:100E10000ED06FF02F022078A0F1300109290CD8F4
:100E200008EB880102EB410100EB0108641CF2E7CA
:100E30000A98641C50F8048B0A9020780028CED0C1
:100E4000642808D0692806D075281ED05A460B9908
:100E500090476D1C58E00A994FF00A0901C90A91A0
:100E6000002802DA40422D2102E0390504D52B2169
:100E70008DF82010012103E0F90704D02021F7E7C5
:100E80008A4608AE0DE00021FAE70A994FF00A09F8
:100E900001C90A91F7E74946FFF766F9303106F8CC
:100EA000011D0028F7D1ADEB060000F120097807FD
:100EB00001D44FF00108C84502DDA8EB090000E0AD
:100EC00000208046002706E008A85A46C05D0B991E
:100ED00090476D1C7F1C5745F6DB04E030205A46D6
:100EE0000B9990476D1CB8F10001A8F10108F5DCE1
:100EF00005E016F8010B5A460B9990476D1CB9F1A5
:100F00000001A9F10109F4DC641C65E7092801006E
:100F100070B504460D46E0B2FFF752FC00BF8021D9
:100F20000348FFF73FFE0028F9D0204670BD0000BF
:100F30000038014000244FF4E010FFF730FA00F0D1
:100F400021F8FFF707FD0DE007480088B0F57A7F2C
:100F500008D1002004490880601C84B2214603A007
:100F6000FFF70CFFF0E70000140000205265636FEC
:100F700072646564212074696D653A202564200AD5
:100F80002000000010B50B48FFF7BEFDFFF7F0FB97
:100F9000FFF75CF9FFF7D8FEFFF784FD012240F26E
:100FA00025510448FFF735FE01210248FFF7A0FD57
:100FB00010BD000000380140D80F000800000020DC
:100FC0001C0000009C0D0008F40F00081C0000200D
:100FD00004040000AC0D000800000000010203043E
:100FE00001020304060708090204060800000000C5
:040FF00000000000FD
:0400000508000145A9
:00000001FF
