:020000040800F2
:100000002004002045010008150400080D04000824
:1000100011040008B90100080D11000800000000DB
:10002000000000000000000000000000B107000810
:10003000BD01000800000000C1040008BD08000860
:100040005F0100085F0100085F0100085F01000810
:100050005F0100085F0100085F0100085F01000800
:100060005F0100085F0100085F0100085F010008F0
:100070005F0100085F0100085F0100085F010008E0
:100080005F0100085F0100085F0100085F010008D0
:100090005F0100085F0100085F0100085F010008C0
:1000A0005F0100085F0100085F010008390A0008CD
:1000B0005F0100085F0100085F0100085F010008A0
:1000C0005F0100085F0100085F0100085F01000890
:1000D0005F0100085F0100085F0100085F01000880
:1000E0005F0100085F0100085F0100085F01000870
:1000F0005F0100085F0100085F0100085F01000860
:100100005F0100085F0100085F0100085F0100084F
:100110005F0100085F0100085F0100085F0100083F
:100120005F0100085F0100085F0100085F0100082F
:10013000DFF80CD000F02EF800480047C912000884
:10014000200400200648804706480047FEE7FEE7F7
:10015000FEE7FEE7FEE7FEE7FEE7FEE7FEE7FEE777
:10016000C10800083101000830B50B4601460020E7
:100170002022012409E021FA02F59D4205D303FA69
:1001800002F5491B04FA02F52844151EA2F10102EA
:10019000F1DC30BD064C074D06E0E06840F001039D
:1001A00094E8070098471034AC42F6D3FFF7C4FF39
:1001B000141300083413000800BFFEE77047000066
:1001C0000549096821F01001034A116011460968C8
:1001D00001431160704700000020024001460020EA
:1001E000034A106800F038000843106070470000B0
:1001F000002002401CB54FF40070ADF80400182038
:100200008DF8070003208DF806004FF48060ADF8EC
:10021000000004208DF8030001A9044800F03EF816
:100220006946024800F03AF81CBD00000008014091
:1002300008B504208DF8030003208DF802004FF468
:100240008070ADF800006946014800F027F808BD4D
:100250000008014008B518208DF8030003208DF830
:1002600002004020ADF8000069460A4800F016F888
:100270008020ADF800006946074800F00FF818200C
:100280008DF803004020ADF800006946024800F0F8
:1002900005F808BD00100140000801402DE9F041BB
:1002A000024600250026002000230024002791F8A4
:1002B00003C00CF00F0591F803C00CF0100CBCF15A
:1002C000000F03D091F802C04CEA050591F800C078
:1002D000BCF1000F31D0146800202BE04FF0010C6E
:1002E0000CFA00F3B1F800C00CEA03069E4220D1DC
:1002F00083004FF00F0C0CFA03F7BC4305FA03FC24
:100300004CEA040491F803C0BCF1280F06D14FF069
:10031000010C0CFA00FCC2F814C00AE091F803C00A
:10032000BCF1480F05D14FF0010C0CFA00FCC2F8EB
:1003300010C0401C0828D1D31460B1F800C0BCF133
:10034000FF0F34DD546800202EE000F1080C4FF060
:10035000010808FA0CF3B1F800C00CEA03069E424B
:1003600021D183004FF00F0C0CFA03F7BC4305FAC0
:1003700003FC4CEA040491F803C0BCF1280F05D13A
:1003800000F1080C08FA0CF8C2F8148091F803C0C8
:10039000BCF1480F07D100F1080C4FF0010808FA32
:1003A0000CF8C2F81080401C0828CED35460BDE879
:1003B000F08110B5044600F0B5F84FF4803000F03D
:1003C00073F900F0D9F901281FD11020FFF7F8FECA
:1003D0000220FFF703FF21464FF4803000F0A8F918
:1003E000012000F09FF9022000F0B0F900BF00F0FA
:1003F00047F90828FBD1002000F04AF94FF480604B
:1004000000F078F9002000F081F910BD00BFFEE790
:1004100000BFFEE7704708B54FF4C06000F046F833
:100420001B208DF8000001208DF801008DF80200DE
:100430008DF80300684600F001F808BD70B5002192
:1004400000230F22C47804B3154C246804F4E0643C
:10045000C4F5E064210AC1F10403CA40447804FAF7
:1004600003F184781440214309010E4C0678A1550C
:10047000047804F01F050124AC4005786D11AD002F
:1004800005F1E025C5F8004109E0047804F01F05F6
:100490000124AC40044D0678761145F8264070BD25
:1004A0000CED00E000E400E080E100E002490143DF
:1004B000024A1160704700000000FA050CED00E0F0
:1004C0007047000029B1064A12690243044B1A61C1
:1004D00004E0034A12698243014B1A61704700002D
:1004E0000010024029B1064A92690243044B9A6106
:1004F00004E0034A92698243014B9A61704700000D
:100500000010024029B1064AD2680243044BDA6067
:1005100004E0034AD2688243014BDA60704700006E
:10052000001002400F48006840F001000D490860CB
:10053000084640680C4908400A4948600846006877
:100540000A490840074908600846006820F48020EE
:1005500008600846406820F4FE0048604FF41F0021
:1005600088607047001002400000FFF8FFFFF6FEB1
:1005700030B500210022002400232D4D6D6805F0C8
:100580000C0121B1042905D0082923D105E0294D0A
:10059000056022E0274D05601FE0254D6D6805F4DC
:1005A0007012234D6D6805F48034022505EB9242EC
:1005B0001CB9214D554305600BE01D4D6D6805F4D8
:1005C00000351DB11C4D5543056002E0194D5543E2
:1005D000056002E0174D056000BF00BF144D6D6857
:1005E00005F0F0010909154D6B5C0568DD404560BB
:1005F0000F4D6D6805F4E061090A104D6B5C4568AC
:10060000DD4085600A4D6D6805F46051C90A0B4DE7
:100610006B5C4568DD40C560054D6D6805F4404183
:10062000890B074D6B5CC568B5FBF3F5056130BD03
:100630000010024000127A0000093D000000002076
:100640001000002010B501460022002300204A11AE
:10065000012A02D1094C236806E0022A02D1074C84
:10066000236A01E0054C636A01F01F0201249440F3
:100670001C400CB1012000E0002010BD0010024021
:100680000248406800F00C00704700000010024073
:1006900001460020034A506820F0F00008435060F3
:1006A00070470000001002401149096821F48031B0
:1006B0000F4A11601146096821F480211160B0F5DC
:1006C000803F03D0B0F5802F0ED106E008490968BD
:1006D00041F48031064A116007E00549096841F498
:1006E000A021034A116000E000BF00BF7047000076
:1006F0000010024001460020034A506820F4E060E8
:10070000084350607047000000100240014600207E
:10071000034A506820F4605040EAC10050607047BE
:100720000010024001490866704700000000424284
:1007300002460020044B586820F47C1042EA010372
:100740001843014B586070470010024001460020DA
:10075000034A506820F003000843506070470000CF
:100760000010024010B501210420FFF7BBFE01215B
:100770008803FFF7B7FE10BD38B5002000900024B5
:10078000002500BF3120FFF75DFF05460098401CA3
:1007900000900098B0F5A06F01D0002DF2D031206C
:1007A000FFF750FF08B1012400E00024204638BDC7
:1007B0007047000010B504462146054800F08AFC49
:1007C00000BF8021024800F0E7FB0028F9D010BDEF
:1007D0000038014010B500F001F810BD0CB5002044
:1007E000019000903348006840F48030314908603F
:1007F00000BF3048006800F4003000900198401CB1
:100800000190009818B90198B0F5A06FF1D129486E
:10081000006800F4003010B10120009001E00020D9
:1008200000900098012843D12348006840F0100050
:10083000214908600846006820F003000860084667
:10084000006840F0020008601A4840681949486092
:100850000846406848600846406840F48060486048
:100860000846406820F47C1048600846406840F420
:10087000E81048600846006840F08070086000BFDB
:100880000C48006800F000700028F9D00948406862
:1008900020F00300074948600846406840F0020025
:1008A000486000BF0348406800F00C000828F9D1F8
:1008B0000CBD000000100240002002407047000004
:1008C00010B51348006840F001001149086008465F
:1008D0004068104908400E494860084600680E49C3
:1008E00008400B4908600846006820F48020086032
:1008F0000846406820F4FE0048604FF41F008860FE
:10090000FFF768FF4FF000600449086010BD000069
:10091000001002400000FFF8FFFFF6FE08ED00E0C7
:10092000F0B50C46154600220021068C4FF6FE77E6
:100930003E400684028B018C4FF60C7632407E1CC2
:1009400006EA03162E433243104EB0420ED0104E2C
:10095000B0420BD0B0F1804F08D00E4EB04205D05F
:100960000D4EB04202D00D4EB04206D14FF6FD768C
:10097000314044F00106314305E04FF6F576314051
:1009800044F00106314302830184F0BD002C014094
:10099000003401400004004000080040000C00400A
:1009A000F0B50C461546002200210026078C4FF6B4
:1009B000EF7C07EA0C070784028B018C4FF6FF7768
:1009C00007EA041640F6FF473A404FF6FF7707EA7A
:1009D00003373A434FF6FF7707EA05273A43114FAB
:1009E000B8420ED0104FB8420BD0B0F1804F08D0B3
:1009F0000E4FB84205D00E4FB84202D00D4FB8424C
:100A000006D14FF6DF77394046F01007394305E04D
:100A10004FF65F77394044F0100739430283018471
:100A2000F0BD0000002C01400034014000040040F3
:100A300000080040000C004010B502210A4800F0F8
:100A4000F9F8094800F014F908490880064800F050
:100A500012F907490880084602880448018805A061
:100A600000F056FB10BD0000002C014014000020D7
:100A70001600002049433176616C75653A20256483
:100A80002C2049433276616C75653A20256400005C
:100A900010B500F0ABF8FFF7CBFBFFF7BCFC00F0A4
:100AA00001F810BD00B587B00020ADF81600ADF814
:100AB000120040F2E730ADF814004720ADF8100006
:100AC00000208DF8180004A9164800F0A5F90020B0
:100AD000ADF80400ADF80C00ADF80600ADF80A0062
:100AE0000120ADF8080001A90E4800F026F95021B8
:100AF0000C4800F060F904210A4800F06EF98021EA
:100B0000084800F061F901220221064800F0B6F819
:100B10000221044800F08EF80121024800F08DF80F
:100B200007B000BD002C014000B58BB00020ADF82F
:100B30002600ADF822000920ADF824004720ADF8CA
:100B4000200000208DF8280008A9234800F064F94F
:100B50006020ADF810000020ADF81C004FF480704C
:100B6000ADF81E000020ADF81800ADF81A00012005
:100B7000ADF812000420ADF81400ADF8160004A979
:100B8000154800F085F80821134800F0CDF84FF41F
:100B90008040ADF80C008010ADF808004000ADF8C2
:100BA0000A000B20ADF806004FF48070ADF8040089
:100BB0008000ADF802004000ADF80000694606482C
:100BC00000F028F80121044800F037F8012102481C
:100BD00000F03FF80BB000BD0034014010B500F04C
:100BE0000FF8FFF737FBFFF79FFF10BD10B501218E
:100BF0000420FFF777FC0121C802FFF773FC10BD4A
:100C000010B501211420FFF76DFC01214803FFF707
:100C100069FC10BD0A884B881A438B881A43CB881D
:100C20001A430B891A434B891A438B891A43A0F83C
:100C300044207047CA430282704721B1028842F0C3
:100C40000102028004E002884FF6FE731A4002801F
:100C5000704731B1B0F8442042F40042A0F844207B
:100C600005E0B0F84420C2F30E02A0F8442070471B
:100C70000146888E70470146088F70471AB18389F4
:100C80000B43838102E083898B438381704700009B
:100C900070B5002400220023058C4FF6FE76354007
:100CA0000584028C8388048B4FF68F752C40B51E0B
:100CB0002C400D882C43751E2A400D892A434D88EF
:100CC0002A43144DA8420BD0134DA84208D0134D0F
:100CD000A84205D0124DA84202D0124DA84213D10D
:100CE0004FF6F7752A404D892A434FF6FB752A4087
:100CF0008D882A434FF6FF652B404FF6FF552B405A
:100D00008D892B43CD892B4383800483CD888586B1
:100D1000028470BD002C01400034014000400140BD
:100D200000440140004801400A460021018B4FF673
:100D3000F77319401143018370472DE9F0410546CF
:100D40000C4600260127608808B9022600E000262C
:100D5000A088012801D1022700E001272088A0B93E
:100D60002389A28861882846FFF7DAFDE1882846B2
:100D700000F03CF823893A4631462846FFF710FE3A
:100D8000E188284600F03BF813E02389A2886188B7
:100D90002846FFF705FEE188284600F030F8238951
:100DA0003A4631462846FFF7BBFDE188284600F069
:100DB0001DF8BDE8F0810A46002101894FF68F73C6
:100DC000194011430181704702894FF67F731A4021
:100DD000028102890A430281704702894FF6F87343
:100DE0001A40028102890A4302817047028B4FF642
:100DF000F3731A400283028B0A4302837047028B0B
:100E00004FF2FF331A400283028B4FF6FF7303EA5F
:100E100001231A4302837047002202881D4B984227
:100E20000ED01D4B98420BD0B0F1804F08D01B4B19
:100E3000984205D01A4B984202D01A4B984204D1DE
:100E40004FF68F731A404B881A43174B984207D0BE
:100E5000164B984204D04FF6FF431A40CB881A43F2
:100E600002808B8883850B8803850A4B98420BD0C0
:100E7000094B984208D00E4B984205D00D4B984232
:100E800002D00D4B984201D10B7A03860123838255
:100E900070470000002C0140003401400004004075
:100EA00000080040000C004000100040001400400A
:100EB00000400140004401400048014008B54FF4A3
:100EC000C060FFF7F3FA25208DF8000001208DF8AF
:100ED00001008DF802008DF803006846FFF7AEFAB6
:100EE00008BD21B1828942F40052828104E08289E6
:100EF0004DF6FF731A4082817047000010B504461A
:100F00002048844209D101218803FFF7FBFA002120
:100F10004FF48040FFF7F6FA32E01B48844209D1D3
:100F200001214804FFF7CEFA00214FF40030FFF70B
:100F3000C9FA25E01548844209D101218804FFF748
:100F4000C1FA00214FF48020FFF7BCFA18E01048E6
:100F5000844209D10121C804FFF7B4FA00214FF4FB
:100F60000020FFF7AFFA0BE00A48844208D10121C4
:100F70000805FFF7A7FA00214FF48010FFF7A2FA47
:100F800010BD00000038014000440040004800400F
:100F9000004C00400050004002460020B1F5007FA8
:100FA00000D100BF13880B400BB1012000E00020EE
:100FB0007047F0B50346002400260025002040F6C7
:100FC0006A17B94200D100BF1846C1F3421401F0BC
:100FD0001F06012707FA06F5012C01D10C3004E0A9
:100FE000022C01D1103000E014301AB107682F43F1
:100FF000076002E00768AF430760F0BD2DE9F047E6
:1010000086B005460E460024A24600BFA146002732
:10101000B08900B100BF2F462C8A4CF6FF70044007
:10102000F08804432C82AC894EF6F3100440B0885B
:1010300031890843718908430443AC81AC8A4FF677
:10104000FF400440B0890443AC8201A8FFF790FA46
:101050001F48874202D1DDF810A001E0DDF80CA0A6
:10106000A88900F4004040B10AEBCA0000EB0A1066
:1010700031684900B0FBF1F807E00AEBCA0000EB69
:101080000A1031688900B0FBF1F86420B8FBF0F079
:1010900004012009642101FB1089A88900F40040A3
:1010A00040B1322000EBC900B0FBF1F000F00700C6
:1010B000044308E0322000EB09106421B0FBF1F09A
:1010C00000F00F0004432C8106B0BDE8F08700005B
:1010D00000380140C1F30802828070471FB54FF409
:1010E000E13000900020ADF80400ADF80600ADF846
:1010F00008000C20ADF80A000020ADF80C0069468D
:101100000148FFF77BFF1FBD0038014000BFFEE72D
:101110000FB4054B10B503A9044A029800F018F863
:1011200010BC5DF814FB0000A51200081800002098
:1011300002E008C8121F08C1002AFAD170477047A0
:10114000002001E001C1121F002AFBD170470000FE
:101150002DE9FF4F89B09B460446002506E025286F
:101160000BD05A460B999047641C6D1C20780028C0
:10117000F5D10DB02846BDE8F08F0027B846012212
:10118000474900E0074314F8013F203B02FA03F00F
:101190000842F7D120782E2819D114F8010F47F012
:1011A00004072A280ED06FF02F022078A0F130011A
:1011B00009290CD808EB880102EB410100EB01087A
:1011C000641CF2E70A98641C50F8048B0A9020789B
:1011D0000028CED0642808D0692806D075281ED0F3
:1011E0005A460B9990476D1C58E00A994FF00A092E
:1011F00001C90A91002802DA40422D2102E0390596
:1012000004D52B218DF82010012103E0F90704D02B
:101210002021F7E78A4608AE0DE00021FAE70A9997
:101220004FF00A0901C90A91F7E74946FEF79CFF0A
:10123000303106F8011D0028F7D1ADEB060000F1B2
:101240002009780701D44FF00108C84502DDA8EB5A
:10125000090000E000208046002706E008A85A4662
:10126000C05D0B9990476D1C7F1C5745F6DB04E071
:1012700030205A460B9990476D1CB8F10001A8F137
:101280000108F5DC05E016F8010B5A460B9990476A
:101290006D1CB9F10001A9F10109F4DC641C65E7DA
:1012A0000928010070B504460D46E0B2FFF782FA46
:1012B00000BF80210348FFF76FFE0028F9D02046C9
:1012C00070BD0000003801404FF4E010FFF771F8E6
:1012D00000F006F8FFF782FCFFF7DAFB00BFFEE73D
:1012E00010B50B48FFF70AFEFFF73CFAFEF782FF46
:1012F000FFF7F4FEFFF7E2FD012240F2255104481A
:10130000FFF757FE01210248FFF7EBFD10BD00007B
:101310000038014034130008000000201C000000C9
:1013200030110008501300081C00002004040000C5
:101330004011000800000000010203040102030440
:10134000060708090204060800000000000000006B
:0400000508000145A9
:00000001FF
