:020000040800F2
:100000008008002045010008F5040008E10400080C
:10001000F10400088D010008210C00080000000018
:100020000000000000000000000000005D08000863
:10003000A5020008000000007D0500086D09000809
:100040005F0100085F0100085F0100085F01000810
:100050005F0100085F010008A90200085F010008B5
:100060005F0100085F0100085F0100085F010008F0
:100070005F0100085F0100085F0100085F010008E0
:100080005F0100085F0100085F0100085F010008D0
:100090005F0100085F0100085F0100085F010008C0
:1000A0005F0100085F0100085F0100085F010008B0
:1000B0005F0100085F0100085F0100085F010008A0
:1000C0005F0100085F0100085F0100085F01000890
:1000D0005F010008F90900085F0100085F010008DE
:1000E0005F0100085F0100085F0100085F01000870
:1000F0005F0100085F0100085F0100085F01000860
:100100005F0100085F0100085F0100085F0100084F
:100110005F0100085F0100085F0100085F0100083F
:100120005F0100085F0100085F0100085F0100082F
:10013000DFF80CD000F018F800480047430C000826
:10014000800800200648804706480047FEE7FEE793
:10015000FEE7FEE7FEE7FEE7FEE7FEE7FEE7FEE777
:100160007109000831010008064C074D06E0E068FF
:1001700040F0010394E8070098471034AC42F6D3EE
:10018000FFF7DAFF840C0008A40C000800BFFEE7AC
:1001900021B1026842F00102026004E002684FF6F9
:1001A000FE731A400260704701460020002201F0F1
:1001B000805313B1054B1A6801E0054B1A6802EA37
:1001C00001030BB1012000E0002070470004024051
:1001D0000000024010B50022026847F6F0739A430F
:1001E0000C6A8B6823430C6923434C6923438C6955
:1001F0002343CC6923434C6A23438C6A23431A4329
:100200000260CB6843600B6883604B68C36010BDBD
:1002100000B58BB000F03AF81648009016480190EF
:10022000102002904FF47A700390002004908020F8
:10023000059000200690079008904FF40050099018
:1002400000200A9069460D48FFF7C4FF0122802173
:100250000848001F00F0F0FB01210848FFF798FF55
:1002600000BF4FF40010FFF79FFF0028F9D00BB03C
:1002700000BD00000438014094000020440002400A
:1002800010B50121084600F07BF910BD002003E005
:100290005021034A1154401CB0F57A7FF8D37047BF
:1002A000940000207047000010B5012000F014F801
:1002B00028B10548006880F001000349086001206A
:1002C00000F004F810BD00000C0C0140014908606A
:1002D0007047000014040140014600200022074B33
:1002E0001B6803EA0102054B14331B680B4013B172
:1002F0000AB1012000E00020704700000004014026
:100300000549096821F01001034A11601146096886
:1003100001431160704700000020024001460020A8
:10032000034A106800F0380008431060704700006E
:10033000002002401CB54FF40070ADF804001820F6
:100340008DF8070003208DF806004FF48060ADF8AB
:10035000000004208DF8030001A9044800F008F80B
:100360006946024800F004F81CBD00000008014086
:100370002DE9F0410246002500260020002300243C
:10038000002791F803C00CF00F0591F803C00CF0A2
:10039000100CBCF1000F03D091F802C04CEA050527
:1003A00091F800C0BCF1000F31D0146800202BE0A0
:1003B0004FF0010C0CFA00F3B1F800C00CEA030690
:1003C0009E4220D183004FF00F0C0CFA03F7BC4380
:1003D00005FA03FC4CEA040491F803C0BCF1280FB1
:1003E00006D14FF0010C0CFA00FCC2F814C00AE070
:1003F00091F803C0BCF1480F05D14FF0010C0CFA85
:1004000000FCC2F810C0401C0828D1D31460B1F819
:1004100000C0BCF1FF0F34DD546800202EE000F175
:10042000080C4FF0010808FA0CF3B1F800C00CEA10
:1004300003069E4221D183004FF00F0C0CFA03F704
:10044000BC4305FA03FC4CEA040491F803C0BCF178
:10045000280F05D100F1080C08FA0CF8C2F8148036
:1004600091F803C0BCF1480F07D100F1080C4FF020
:10047000010808FA0CF8C2F81080401C0828CED3F6
:100480005460BDE8F08110B5044600F0A1F84FF4C7
:10049000803000F05FF900F0C5F901281FD110206D
:1004A000FFF72EFF0220FFF739FF21464FF480307F
:1004B00000F094F9012000F08BF9022000F09CF983
:1004C00000BF00F033F90828FBD1002000F036F916
:1004D0004FF4806000F064F9002000F06DF910BD69
:1004E00000BFFEE710B50121082000F059F810BD4B
:1004F00000BFFEE77047000070B5002100230F2207
:10050000C47804B3154C246804F4E064C4F5E064D2
:10051000210AC1F10403CA40447804FA03F1847843
:100520001440214309010E4C0678A155047804F0CB
:100530001F050124AC4005786D11AD0005F1E025E3
:10054000C5F8004109E0047804F01F050124AC401F
:10055000044D0678761145F8264070BD0CED00E09C
:1005600000E400E080E100E002490143024A11603A
:10057000704700000000FA050CED00E07047000035
:1005800029B1064A52690243044B5A6104E0034A06
:1005900052698243014B5A617047000000100240CB
:1005A00029B1064A92690243044B9A6104E0034A66
:1005B00092698243014B9A6170470000001002402B
:1005C00010B5FFF78FFFFFF75BFE00F021F910BDBC
:1005D0000F48006840F001000D4908600846406877
:1005E0000C4908400A494860084600680A49084022
:1005F000074908600846006820F480200860084623
:10060000406820F4FE0048604FF41F008860704787
:10061000001002400000FFF8FFFFF6FE30B5002199
:100620000022002400232D4D6D6805F00C0121B13E
:10063000042905D0082923D105E0294D056022E0D1
:10064000274D05601FE0254D6D6805F47012234DA0
:100650006D6805F48034022505EB92421CB9214DEA
:10066000554305600BE01D4D6D6805F400351DB167
:100670001C4D5543056002E0194D5543056002E0ED
:10068000174D056000BF00BF144D6D6805F0F00107
:100690000909154D6B5C0568DD4045600F4D6D68BF
:1006A00005F4E061090A104D6B5C4568DD4085602A
:1006B0000A4D6D6805F46051C90A0B4D6B5C4568C5
:1006C000DD40C560054D6D6805F44041890B074D5F
:1006D0006B5CC568B5FBF3F5056130BD00100240E9
:1006E00000127A0000093D000000002010000020E8
:1006F00010B501460022002300204A11012A02D130
:10070000094C236806E0022A02D1074C236A01E063
:10071000054C636A01F01F02012494401C400CB197
:10072000012000E0002010BD001002400248406897
:1007300000F00C007047000000100240014600204D
:10074000034A506820F0F0000843506070470000F2
:10075000001002401149096821F480310F4A1160EC
:100760001146096821F480211160B0F5803F03D063
:10077000B0F5802F0ED106E00849096841F48031B8
:10078000064A116007E00549096841F4A021034ABF
:10079000116000E000BF00BF704700000010024081
:1007A00001460020034A506820F4E060084350608E
:1007B000704700000010024001460020034A5068C4
:1007C00020F4605040EAC1005060704700100240C1
:1007D00001490866704700000000424202460020BE
:1007E000044B586820F47C1042EA01031843014B83
:1007F000586070470010024001460020034A5068CC
:1008000020F00300084350607047000000100240D1
:1008100010B501210420FFF7C3FE01218803FFF773
:10082000BFFE10BD38B5002000900024002500BF99
:100830003120FFF75DFF05460098401C00900098AE
:10084000B0F5A06F01D0002DF2D03120FFF750FF9E
:1008500008B1012400E00024204638BD70470000A4
:1008600070B504460D462946204600F0BCF900BF8D
:100870008021034800F0E9F80028F9D070BD00009D
:100880000038014010B500F001F810BD0CB5002093
:10089000019000903348006840F48030314908608E
:1008A00000BF3048006800F4003000900198401C00
:1008B0000190009818B90198B0F5A06FF1D12948BE
:1008C000006800F4003010B10120009001E0002029
:1008D00000900098012843D12348006840F01000A0
:1008E000214908600846006820F0030008600846B7
:1008F000006840F0020008601A48406819494860E2
:100900000846406848600846406840F48060486097
:100910000846406820F47C1048600846406840F46F
:10092000E81048600846006840F08070086000BF2A
:100930000C48006800F000700028F9D009484068B1
:1009400020F00300074948600846406840F0020074
:10095000486000BF0348406800F00C000828F9D147
:100960000CBD000000100240002002407047000053
:1009700010B51348006840F00100114908600846AE
:100980004068104908400E494860084600680E4912
:1009900008400B4908600846006820F48020086081
:1009A0000846406820F4FE0048604FF41F0088604D
:1009B000FFF768FF4FF000600449086010BD0000B9
:1009C000001002400000FFF8FFFFF6FE08ED00E017
:1009D00008B54FF4C060FFF7C7FD25208DF8000073
:1009E00001208DF801008DF802008DF803006846A3
:1009F000FFF782FD08BD000010B5002440F225512C
:100A0000064800F02FF838B1044800F0E7F8C4B207
:100A100021460248FFF724FF10BD000000380140C6
:100A200021B1828942F40052828104E082894DF62C
:100A3000FF731A40828170471AB1838A0B43838205
:100A400002E0838A8B438382704702460020B1F51F
:100A5000007F00D100BF13880B400BB1012000E0E4
:100A60000020704770B502460024002300250020B6
:100A700040F66A16B14200D100BFC1F3421501F041
:100A80001F03012606FA03F3012D02D19689334094
:100A900006E0022D02D1168A334001E0968A3340E7
:100AA0000C12012606FA04F41688344013B10CB176
:100AB000012000E0002070BDF0B5034600240026B0
:100AC0000025002040F66A17B94200D100BF184641
:100AD000C1F3421401F01F06012707FA06F5012CA5
:100AE00001D10C3004E0022C01D1103000E01430B0
:100AF0001AB107682F43076002E00768AF43076039
:100B0000F0BD00002DE9F04786B005460E460024F2
:100B1000A24600BFA1460027B08900B100BF2F4602
:100B20002C8A4CF6FF700440F08804432C82AC8978
:100B30004EF6F3100440B0883189084371890843A8
:100B40000443AC81AC8A4FF6FF400440B0890443B3
:100B5000AC8201A8FFF762FD1F48874202D1DDF891
:100B600010A001E0DDF80CA0A88900F4004040B11D
:100B70000AEBCA0000EB0A1031684900B0FBF1F83B
:100B800007E00AEBCA0000EB0A1031688900B0FBED
:100B9000F1F86420B8FBF0F004012009642101FBA6
:100BA0001089A88900F4004040B1322000EBC90050
:100BB000B0FBF1F000F00700044308E0322000EB46
:100BC00009106421B0FBF1F000F00F0004432C8108
:100BD00006B0BDE8F0870000003801400146888873
:100BE000C0F308007047C1F308028280704700001C
:100BF0001FB54FF4E13000900020ADF80400ADF8CF
:100C00000600ADF808000C20ADF80A000020ADF891
:100C10000C0069460148FFF775FF1FBD0038014011
:100C200000BFFEE702E008C8121F08C1002AFAD17F
:100C300070477047002001E001C1121F002AFBD15C
:100C400070474FF4E010FFF71EFCFFF7B9FC00F00F
:100C500005F8FFF7DDFA00BFFEE7000010B5FFF76B
:100C600069FBFFF7C5FFFFF7B3FE012240F22551F4
:100C70000348FFF721FF01210148FFF7D1FE10BD16
:100C800000380140A40C00080000002014000000FF
:100C9000240C0008B80C0008140000206C080000A8
:100CA000340C0008000000000102030401020304E8
:080CB00006070809020406080A
:0400000508000145A9
:00000001FF
