:020000040800F2
:1000000080040020450100087D05000885040008E3
:10001000790500088D010008E109000800000000D2
:100020000000000000000000000000007107000850
:100030007D020008000000007F050008D5080008C8
:100040005F0100085F0100085F0100085F01000810
:100050005F0100085F010008810200085F010008DD
:100060005F0100085F0100085F0100085F010008F0
:100070005F0100085F0100085F0100085F010008E0
:100080005F0100085F0100085F0100085F010008D0
:100090005F0100085F0100085F0100085F010008C0
:1000A0005F0100085F0100085F0100085F010008B0
:1000B0005F0100085F0100085F0100085F010008A0
:1000C0005F0100085F0100085F0100085F01000890
:1000D0005F010008390900085F0100085F0100089E
:1000E0005F0100085F0100085F0100085F01000870
:1000F0005F0100085F0100085F0100085F01000860
:100100005F0100085F0100085F0100085F0100084F
:100110005F0100085F0100085F0100085F0100083F
:100120005F0100085F0100085F0100085F0100082F
:10013000DFF80CD000F018F800480047050A000866
:10014000800400200648804706480047FEE7FEE797
:10015000FEE7FEE7FEE7FEE7FEE7FEE7FEE7FEE777
:10016000D908000831010008064C074D06E0E06898
:1001700040F0010394E8070098471034AC42F6D3EE
:10018000FFF7DAFF300B0008400B000800BFFEE766
:1001900021B1026842F00102026004E002684FF6F9
:1001A000FE731A400260704700B58BB01348009090
:1001B00013480190002002902020039040200490DA
:1001C0008020059080000690800007900020089015
:1001D0004FF40050099040000A906946094800F029
:1001E00029F801210748FFF7D3FF00BF4FF40010A3
:1001F00000F00AF80028F9D00BB000BDB00A0008E2
:10020000000000206C00024001460020002201F0A6
:10021000805313B1054B1A6801E0054B1A6802EAD6
:1002200001030BB1012000E00020704700040240F0
:100230000000024010B50022026847F6F0739A43AE
:100240000C6A8B6823430C6923434C6923438C69F4
:100250002343CC6923434C6A23438C6A23431A43C8
:100260000260CB6843600B6883604B68C36010BD5D
:1002700010B50121084600F083F910BD7047000059
:1002800010B5012000F014F828B10548006880F08E
:10029000010003490860012000F004F810BD0000CF
:1002A0000C0C014001490860704700001404014033
:1002B000014600200022074B1B6803EA0102054BA0
:1002C00014331B680B4013B10AB1012000E0002079
:1002D00070470000000401400549096821F0100141
:1002E000034A11601146096801431160704700001C
:1002F0000020024001460020034A106800F0380048
:100300000843106070470000002002402DE9F041D2
:10031000024600250026002000230024002791F833
:1003200003C00CF00F0591F803C00CF0100CBCF1E9
:10033000000F03D091F802C04CEA050591F800C007
:10034000BCF1000F31D0146800202BE04FF0010CFD
:100350000CFA00F3B1F800C00CEA03069E4220D16B
:1003600083004FF00F0C0CFA03F7BC4305FA03FCB3
:100370004CEA040491F803C0BCF1280F06D14FF0F9
:10038000010C0CFA00FCC2F814C00AE091F803C09A
:10039000BCF1480F05D14FF0010C0CFA00FCC2F87B
:1003A00010C0401C0828D1D31460B1F800C0BCF1C3
:1003B000FF0F34DD546800202EE000F1080C4FF0F0
:1003C000010808FA0CF3B1F800C00CEA03069E42DB
:1003D00021D183004FF00F0C0CFA03F7BC4305FA50
:1003E00003FC4CEA040491F803C0BCF1280F05D1CA
:1003F00000F1080C08FA0CF8C2F8148091F803C058
:10040000BCF1480F07D100F1080C4FF0010808FAC1
:100410000CF8C2F81080401C0828CED35460BDE808
:10042000F081416170470161704710B5044600F0EA
:10043000CDF84FF4803000F021F900F07DF901286B
:100440001FD11020FFF748FF0220FFF753FF21467E
:100450004FF4803000F056F9012000F04DF90220F1
:1004600000F05EF900BF00F0F5F80828FBD100208D
:1004700000F0F8F84FF4806000F026F9002000F05A
:100480002FF910BD00BFFEE708B52320ADF800002E
:1004900010208DF8030001208DF802006946024803
:1004A000FFF734FF08BD0000000C014010B501212A
:1004B000082000F075F810BD10B50446FFF7E4FF02
:1004C00064B901212B48FFF7ACFF02212948FFF74F
:1004D000AAFF20212748FFF7A6FF49E0012C0CD1F5
:1004E00001212448FFF79FFF02212248FFF799FFCF
:1004F00020212048FFF797FF3AE0022C0CD1012180
:100500001C48FFF790FF02211A48FFF78CFF2021BB
:100510001848FFF786FF2BE0032C0CD1012115486A
:10052000FFF77FFF02211348FFF77BFF20211148CF
:10053000FFF779FF1CE0042C0CD101210D48FFF7D7
:1005400072FF02210B48FFF76CFF20210948FFF7DB
:1005500068FF0DE0052C0BD101210648FFF761FF74
:1005600002210448FFF75FFF20210248FFF759FFEF
:1005700010BD0000000C014000BFFEE7704770474F
:1005800029B1064A52690243044B5A6104E0034A06
:1005900052698243014B5A617047000000100240CB
:1005A00029B1064A92690243044B9A6104E0034A66
:1005B00092698243014B9A6170470000001002402B
:1005C00010B5FFF773FFFFF753FE10BD0F4800682B
:1005D00040F001000D490860084640680C49084099
:1005E0000A494860084600680A4908400749086007
:1005F0000846006820F4802008600846406820F41F
:10060000FE0048604FF41F008860704700100240F1
:100610000000FFF8FFFFF6FE10B5014600220023A0
:1006200000204A11012A02D1094C236806E0022A5F
:1006300002D1074C236A01E0054C636A01F01F02F6
:10064000012494401C400CB1012000E0002010BDAA
:10065000001002400248406800F00C0070470000A3
:100660000010024001460020034A506820F0F000CC
:1006700008435060704700000010024011490968AB
:1006800021F480310F4A11601146096821F480215C
:100690001160B0F5803F03D0B0F5802F0ED106E099
:1006A0000849096841F48031064A116007E00549AC
:1006B000096841F4A021034A116000E000BF00BFB7
:1006C000704700000010024001460020034A5068B5
:1006D00020F4E060084350607047000000100240C2
:1006E00001460020034A506820F4605040EAC100EF
:1006F00050607047001002400149086670470000D2
:100700000000424202460020044B586820F47C104E
:1007100042EA01031843014B586070470010024041
:1007200001460020034A506820F00300084350604F
:10073000704700000010024038B5002000900024EF
:10074000002500BF3120FFF767FF05460098401CD9
:1007500000900098B0F5A06F01D0002DF2D03120AC
:10076000FFF75AFF08B1012400E00024204638BDFD
:100770007047000070B504460D462946204600F03B
:100780002BF900BF8021034800F0EAF80028F9D0D7
:1007900070BD00000038014010B500F001F810BD38
:1007A0000CB50020019000903348006840F4803080
:1007B0003149086000BF3048006800F40030009004
:1007C0000198401C0190009818B90198B0F5A06FED
:1007D000F1D12948006800F4003010B101200090E8
:1007E00001E0002000900098012843D123480068D0
:1007F00040F01000214908600846006820F003001E
:1008000008600846006840F0020008601A48406826
:10081000194948600846406848600846406840F406
:10082000806048600846406820F47C1048600846B4
:10083000406840F4E81048600846006840F0807066
:10084000086000BF0C48006800F000700028F9D074
:100850000948406820F0030007494860084640689E
:1008600040F00200486000BF0348406800F00C0000
:100870000828F9D10CBD0000001002400020024001
:1008800030B50146B1F1807F01D3012030BD21F0A8
:100890007F40401E4FF0E022506150170F22002889
:1008A00007DA13071D0E094B00F00F04241F1D5516
:1008B00003E013071C0E064B1C5400BF00204FF032
:1008C000E0229061072010610020DFE718ED00E0D2
:1008D00000E400E07047000010B51348006840F0E5
:1008E00001001149086008464068104908400E4957
:1008F0004860084600680E4908400B4908600846F1
:10090000006820F4802008600846406820F4FE005B
:1009100048604FF41F008860FFF73EFF4FF0006013
:100920000449086010BD0000001002400000FFF8FC
:10093000FFFFF6FE08ED00E010B5002440F225515F
:10094000064800F01AF838B1044800F040F8C4B284
:1009500021460248FFF70EFF10BD0000003801409D
:1009600002460020B1F5007F00D100BF13880B4084
:100970000BB1012000E00020704770B50246002452
:1009800000230025002040F66A16B14200D100BFC6
:10099000C1F3421501F01F03012606FA03F3012DEE
:1009A00002D19689334006E0022D02D1168A3340E7
:1009B00001E0968A33400C12012606FA04F41688E8
:1009C000344013B10CB1012000E0002070BD01469D
:1009D0008888C0F308007047C1F30802828070471E
:1009E00000BFFEE702E008C8121F08C1002AFAD1C2
:1009F00070477047002001E001C1121F002AFBD19F
:100A0000704700004FF4E010FFF70FFDFFF7D8FD2F
:100A10000520FFF751FD4FF4FA7000F02BF8FFF7B7
:100A2000C3FB20220749084800F010F8012803D131
:100A30000020FFF741FD02E00220FFF73DFD00BF6F
:100A4000FEE7000000000020B00A000830B50346B1
:100A50000C46002109E053F8210054F82150A84227
:100A600001D0002030BD481CC1B29142F3DB01200F
:100A7000F8E7000070B504460C48FFF701FF0025B9
:100A800008E000BF4FF0E020006900F4803000284B
:100A9000F8D06D1CA542F4D34FF0E020006920F09F
:100AA00001004FF0E021086170BD00004019010015
:100AB000010000000200000003000000040000002C
:100AC000010000000200000003000000040000001C
:100AD000010000000200000003000000040000000C
:100AE00001000000020000000300000004000000FC
:100AF00001000000020000000300000004000000EC
:100B000001000000020000000300000004000000DB
:100B100001000000020000000300000004000000CB
:100B200001000000020000000300000004000000BB
:100B3000400B00080000002080040000F4090008B9
:0400000508000145A9
:00000001FF
